:100000000C948F000C94B7000C94B7000C94B700BC
:100010000C94B7000C94B7000C94B7000C94B70084
:100020000C94B7000C94B7000C94B7000C94B70074
:100030000C94B7000C94B7000C94B7000C94B70064
:100040000C9454090C94B7000C943A030C941403C8
:100050000C94B7000C94B7000C94B7000C94B70044
:100060000C94B6030C94B700FA0A890DAC0DCD0DB3
:10007000530EFA0EA10F4B10D4107E112812F80B5C
:10008000FB0BFE0B010C040C070C0A0C0D0C100CE6
:10009000130C160C190C7D057F058105960583054B
:1000A00085058705960589058B058D0596058F05C0
:1000B000910593051F1C1F1E1F1E1F1F1E1F1E00C4
:1000C0000000002300260029000000000024002773
:1000D000002A0000000000250028002B0004040472
:1000E00004040404040202020202020303030303E1
:1000F00003010204081020408001020408102001BE
:10010000020408102000000008000201000003049F
:1001100007000000000000000000E412D8121124C3
:100120001FBECFEFD8E0DEBFCDBF24E0AAE9B2E02A
:1001300001C01D92A634B207E1F712E0A0E0B1E0E1
:10014000E6E2FCE202C005900D92AA39B107D9F7A8
:1001500010E0CEE8D0E004C02197FE010E94041414
:10016000CD38D107C9F70E949E090C9406160C944D
:1001700000000895CF92DF92EF92FF920F931F93AA
:10018000CF93DF936C017A018B01C0E0D0E0CE15F4
:10019000DF0581F0D8016D918D01D601ED91FC91C3
:1001A0000190F081E02DC6010995892B11F021966F
:1001B000EECF7E01C701DF91CF911F910F91FF908C
:1001C000EF90DF90CF900895FC01538D448D252F43
:1001D00030E0842F90E0821B930B541710F0CF96E1
:1001E000089501970895FC01918D828D981761F013
:1001F000828DDF01A80FB11D5D968C91928D9F5F5E
:100200009F73928F90E008958FEF9FEF0895FC0108
:10021000918D828D981731F0828DE80FF11D858DBB
:1002200090E008958FEF9FEF0895FC01918D228D4E
:10023000892F90E0805C9F4F821B91098F739927D3
:10024000089582E793E00E94150121E0892B09F4CB
:1002500020E0822F0895FC01848DDF01A80FB11DDD
:10026000A35ABF4F2C91848D90E001968F739927EC
:10027000848FA689B7892C93A089B1898C918370CA
:1002800080648C93938D848D981306C00288F389C3
:10029000E02D80818F7D80830895EF92FF920F93F0
:1002A0001F93CF93DF93EC0181E0888F9B8D8C8D22
:1002B000981305C0E889F989808185FD26C0F62E4E
:1002C0000B8D10E00F5F1F4F0F731127E02E8C8DE9
:1002D000E8120CC00FB607FCFACFE889F9898081D3
:1002E00085FFF5CFCE010E942B01F1CF8B8DFE0152
:1002F000E80FF11DE35AFF4FF0829FB7F8940B8F80
:10030000EA89FB89808180620AC09FB7F894EE89F0
:10031000FF896083E889F9898081837080648083A4
:100320009FBF81E090E0DF91CF911F910F91FF90EF
:10033000EF900895CF93DF93EC01888D8823C9F067
:10034000EA89FB89808185FD05C0A889B9898C91DE
:1003500086FD0FC00FB607FCF5CF808185FFF2CF79
:10036000A889B9898C9185FFEDCFCE010E942B0120
:10037000E7CFDF91CF91089580E090E0892B29F0BD
:100380000E94210181110C940000089585ED809355
:10039000BC008091BC0084FDFCCF10924D030895F9
:1003A0004091DE02262F30E0240F311D213231052D
:1003B000DCF420914D032430C9F4FC0180E090E08E
:1003C000861758F43091DE022191DC01A254BD4F12
:1003D000A30FB11D2C930196F3CF8091DE02680F1D
:1003E0006093DE0280E0089581E0089582E0089540
:1003F000089508950895E091260380912503E81754
:1004000030F4F0E0EF5FFC4F808190E008958FEFD3
:100410009FEF08959091260380912503981750F43B
:10042000E92FF0E0EF5FFC4F208130E09F5F909379
:10043000260302C02FEF3FEFC901089580912503E5
:1004400090E020912603821B91090895CF92DF92BC
:10045000EF92FF920F931F93CF93DF937C01CB0119
:100460008A0120914E03222389F0EB016B01C40E17
:10047000D51ECC15DD0569F06991D701ED91FC9190
:100480000190F081E02DC7010995F3CF642F0E9400
:10049000D001C801DF91CF911F910F91FF90EF9094
:1004A000DF90CF900895CF93DF931F92CDB7DEB743
:1004B000698320914E032223D1F0209171032032D1
:1004C00040F021E030E0FC013383228380E090E0C3
:1004D00015C080914F03E82FF0E0E05BFC4F99815D
:1004E00090838F5F80934F038093710305C061E019
:1004F000CE0101960E94D00181E090E00F90DF9143
:10050000CF91089580E090E008950E94F1150F9337
:100510001F93CF93DF93EC0188819981009729F095
:100520002A813B812617370788F48B016F5F7F4F45
:100530000E942B15009761F0998388831B830A839F
:100540002C813D81232B11F4FC01108281E001C03C
:1005500080E0DF91CF911F910F910895CF93DF93AA
:10056000EC0188819981009711F00E94A2141982F0
:1005700018821D821C821B821A82DF91CF910895FE
:10058000EF92FF920F931F93CF93DF93EC017B01C8
:100590008A01BA010E948702811104C0CE010E9423
:1005A000AE0207C01D830C83B701888199810E9428
:1005B000FF15CE01DF91CF911F910F91FF90EF902A
:1005C0000895CF93DF93EC016115710559F0FB019C
:1005D00001900020E9F73197AF01461B570B0E94AD
:1005E000C00202C00E94AE02CE01DF91CF910895F9
:1005F000CF93DF93EC01FB018617970761F06081D1
:1006000071816115710529F0448155810E94C002F4
:1006100002C00E94AE02CE01DF91CF910895FC018D
:10062000808191810C94A2141F920F920FB60F92A9
:1006300011242F933F934F935F936F937F938F93E7
:100640009F93AF93BF93EF93FF9382E793E00E9452
:100650002B01FF91EF91BF91AF919F918F917F916E
:100660006F915F914F913F912F910F900FBE0F901F
:100670001F9018951F920F920FB60F9211242F936F
:100680008F939F93EF93FF93E0918203F091830305
:100690008081E0918803F091890382FD12C09081EE
:1006A00080918B038F5F8F7320918C03821751F0A1
:1006B000E0918B03F0E0EE58FC4F958F80938B0315
:1006C00001C08081FF91EF919F918F912F910F90A9
:1006D0000FBE0F901F901895FC01248131E03093DC
:1006E0004E032093700310924F0310927103838581
:1006F000682B8FE094E00E94530281E00C94B805CF
:100700000F931F93CF938C01C62F0E946C036C2F05
:100710006460C8010E946C036C2F6B7FC8010E944B
:100720006C0383EC90E00197F1F7CF911F910F914B
:1007300008950F931F93CF93DF938C01C62FD42F6F
:10074000607F642B0E94800380E1C89FB001112468
:100750006D2BC801DF91CF911F910F910C948003F5
:1007600041E00E94990381E090E008951F920F926A
:100770000FB60F9211242F933F934F935F936F9374
:100780007F938F939F93AF93BF93EF93FF9380914A
:10079000B900887F803609F49CC068F5883209F476
:1007A0005BC090F4803109F454C038F4882309F414
:1007B000F6C0883009F44DC0F6C0883109F44CC049
:1007C000803209F45DC0EFC0803409F468C048F499
:1007D000803309F455C0883309F0E5C080934B039A
:1007E000D8C0803509F44FC0883509F45DC088341D
:1007F00009F0D9C0D6C0883909F4C7C0A8F4883731
:1008000009F467C038F4883609F463C0803709F406
:1008100060C0C9C0883809F4B8C0803909F45FC025
:10082000803809F0C0C05BC0803B09F486C038F452
:10083000803A09F466C0883A09F47FC0B4C0803CAD
:1008400009F4A7C0883C09F4A4C0883B09F48AC015
:10085000AAC08091280310C090914A038091490357
:10086000981770F5E0914A0381E08E0F80934A0358
:10087000F0E0E75DFC4F80818093BB0085EC86C093
:1008800080934B038EC0E0914A0381E08E0F8093EA
:100890004A038091BB00F0E0E75DFC4F80839091BC
:1008A0004A03809149036EC0E0914A0381E08E0FB4
:1008B00080934A038091BB00F0E0E75DFC4F8083AA
:1008C00080914C0381116DC081E08093270384EAFD
:1008D00061C083E080934D0310920003CFCF8091DD
:1008E0000003803208F051C0E091000381E08E0FD8
:1008F000809300038091BB00F0E0E052FD4F8083C5
:10090000BDCF85EC8093BC0010924D038091000315
:10091000803230F4E0910003F0E0E052FD4F1082AD
:100920006091000370E0E0912103F091220380EEDA
:1009300092E009951092000336C084E080934D0345
:100940001092DF021092DE02E0912303F091240363
:1009500009958091DE02811105C081E08093DE025D
:100960001092BE02E091DF0281E08E0F8093DF02E1
:10097000F0E0E254FD4F80818093BB009091DF0254
:100980008091DE02981708F479CF85E88093BC0047
:100990000AC085EC8093BC0010924D0304C01092F5
:1009A0004B030E94C601FF91EF91BF91AF919F91C0
:1009B0008F917F916F915F914F913F912F910F9008
:1009C0000FBE0F901F901895AF92BF92DF92EF92DB
:1009D000FF920F931F93CF93DF93EC017B018B0169
:1009E0005C0184E0A80EB11CF801D1908F01CE010A
:1009F0000E947513D81621F06D2DCE010E947D1333
:100A00002196CA15DB0581F7C701DF91CF911F91B0
:100A10000F91FF90EF90DF90BF90AF900895CF922D
:100A2000DF92EF92FF920F931F93CF93DF93EB012F
:100A30007B0124E0E20EF11C8B016C01C61AD70A7F
:100A4000C601800F911F0E947513F80181938F01D9
:100A5000EE15FF05A9F7CE01DF91CF911F910F9100
:100A6000FF90EF90DF90CF900895CF93DF93E9E070
:100A7000F1E08491E5EFF0E0D491E1EEF0E0C49193
:100A8000CC23A1F081110E942F08EC2FF0E0EE0F93
:100A9000FF1FE154FF4FA591B491EC91ED2331E09C
:100AA00020E009F430E0832F922F02C080E090E034
:100AB000282F217030919A02231739F020939A023F
:100AC000892B19F081E080939D02DF91CF910895E9
:100AD00061E070E080E290E00E944E068FE094E0DA
:100AE0000E940A028F7090E0FC013197EF30F1050F
:100AF000E8F4E55BFF4F0C94041483E215C080E337
:100B000013C08AE211C089E30FC088E30DC087E3F8
:100B10000BC086E309C085E307C084E305C083E317
:100B200003C082E301C081E380939C020895009793
:100B300069F0FC0101900020E9F73197AF01481BF3
:100B4000590BBC018DE294E00C94BA0080E090E077
:100B50000895FC0111821082138212821582148280
:100B600040E050E068EC71E00C94C0020C949705F2
:100B7000282F30917103313208F04AC080914D0323
:100B80008111FCCF9091700342E040934D0320937C
:100B90004C032FEF20934B0310924A0330934903E9
:100BA000E0E5F3E0A9E2B3E020E0321721F0419163
:100BB0004D932F5FFACF1092280320912803990FAD
:100BC000922B9093280390912703913061F4109217
:100BD0002703909128039093BB009091BC0093FD54
:100BE000F8CF95EC01C095EE9093BC0090914D0329
:100BF0009230E1F390914B039F3F79F080914B034A
:100C0000803241F080914B03803331F084E005C0A5
:100C100081E003C082E001C083E010924F03109294
:100C2000710310924E030895CF93DF93CDB7DEB7D3
:100C300028970FB6F894DEBF0FBECDBF98E0E6E070
:100C4000F1E0DE01119601900D929A95E1F79091F5
:100C50003604961710F46FEF690FFE013196E60F18
:100C6000F11DE60FF11D6081680F606840E08DE2C4
:100C700094E028960FB6F894DEBF0FBECDBFDF918B
:100C8000CF910C94990340E061E08DE294E00E94E2
:100C900099038BE39FE10197F1F7089590914D033C
:100CA0009111FCCF613208F060E291E090934D0326
:100CB00090934C032FEF20934B0310924A03260F7F
:100CC000209349039093280390912803880F892B40
:100CD0008093280380912703813061F410922703C9
:100CE000809128038093BB008091BC0083FDF8CFE6
:100CF00085EC01C085EE8093BC0080914D0381306E
:100D0000E1F380914A03861710F460914A03A9E247
:100D1000B3E0E1E0F3E080E0861721F09D9191934C
:100D20008F5FFACF10922603809325030895809158
:100D3000270490912804009711F00C94391360E077
:100D400070E0CB010895CF93DF9300D0CDB7DEB72D
:100D5000FC0111821082138212821582148220E219
:100D600029831A82BE016F5F7F4F0E94E1020F90BC
:100D70000F90DF91CF910895CF93DF93EC01809195
:100D80002704909128040097C9F068817981611542
:100D9000710591F04091290450912A042C813D81E4
:100DA0004217530748F00E94FF158C819D81909354
:100DB0002C0480932B0418C00E94A214888199816E
:100DC00090932804809327048A819B8190932A041E
:100DD000809329048C819D8190932C0480932B0413
:100DE000198218821B821A821D821C82DF91CF9188
:100DF0000895FC01118210821382128215821482DE
:100E000067E274E00C94F802EF92FF920F931F9345
:100E1000CF93DF9300D0CDB7DEB78C0169831A8200
:100E2000FC01E480F580FFEFEF1AFF0AB7010E9492
:100E30008702882381F0F8012081318184819581A6
:100E4000BE016F5F7F4F820F931F0E94FF15F80155
:100E5000F582E48203C0C8010E94AE02C8010F906F
:100E60000F90DF91CF911F910F91FF90EF90089518
:100E700041E0682F8DE294E00E94990381E090E0C8
:100E800008958F929F92AF92BF920F931F93CF932B
:100E9000DF93CDB7DEB7A1970FB6F894DEBF0FBED4
:100EA000CDBF19A2423008F44AE08E010F5D1F4FFA
:100EB000842E912CA12CB12CA50194010E94E21347
:100EC000E62FB901CA0101501109EA3014F4E05DBE
:100ED00001C0E95CD801EC93232B242B252B61F76F
:100EE000C8010E949705A1960FB6F894DEBF0FBE09
:100EF000CDBFDF91CF911F910F91BF90AF909F9089
:100F00008F9008950F931F93CF938C0181E080936E
:100F10004E0388E68093700310924F031092710382
:100F200060E08FE094E00E945302F8012581CAE05E
:100F3000822F6C2F0E94C213682F660F860F880FB6
:100F4000682F620F8FE094E00E945302F801248121
:100F5000822F6C2F0E94C213682F660F860F880F96
:100F6000682F620F8FE094E00E945302F801238102
:100F7000822F6C2F0E94C213682F660F860F880F76
:100F8000682F620F8FE094E00E94530260E08FE0D0
:100F900094E00E945302F8012281822F6C2F0E945C
:100FA000C213682F660F860F880F682F620F8FE0BD
:100FB00094E00E945302F8012181822F6C2F0E943D
:100FC000C213682F660F860F880F682F620F8FE09D
:100FD00094E00E945302F8012081822F6C2F0E941E
:100FE000C213682F660F860F880F682F620F8FE07D
:100FF00094E00E94530281E0CF911F910F910C94D5
:10100000B805CF92DF92EF92FF92CF93DF936C01FE
:10101000990FEE08FF08F7FE17C08DE20E9438070F
:10102000EC0166277727CB016C197D098E099F0992
:101030004AE00E9441078C0F9D1FDF91CF91FF90E6
:10104000EF90DF90CF9008954AE0C701B601DF919D
:10105000CF91FF90EF90DF90CF900C9441078330B9
:1010600081F028F4813099F08230A1F00895873022
:10107000A9F08830B9F08430D1F4809180008F7D60
:1010800003C0809180008F7780938000089584B59D
:101090008F7702C084B58F7D84BD08958091B000A4
:1010A0008F7703C08091B0008F7D8093B00008954A
:1010B0001F93CF93DF93282F30E0F901EB5FFE4FB2
:1010C0008491F901EF50FF4FD491F901E352FF4FA2
:1010D000C491CC23C1F0162F81110E942F08EC2F50
:1010E000F0E0EE0FFF1FED52FF4FA591B4919FB7B7
:1010F000F894111104C08C91D095D82302C0EC91C2
:10110000DE2BDC939FBFDF91CF911F91089510924A
:1011100026031092250310924F0310927103109230
:101120004D0381E080934C031092270361E082E13C
:101130000E94580861E083E10E945808E9EBF0E062
:1011400080818E7F808380818D7F808388E48093FF
:10115000B80085E48093BC0088EF91E0909324036D
:101160008093230389EF91E09093220380932103DE
:101170000895CF93DF9390E0FC01EF50FF4F24914F
:10118000FC01E352FF4F8491882361F190E0880FC6
:10119000991FFC01E753FF4FC591D491FC01ED521B
:1011A000FF4FA591B491611109C09FB7F894888150
:1011B000209582238883EC912E230BC0623061F44A
:1011C0009FB7F8948881322F309583238883EC91E0
:1011D0002E2B2C939FBF06C08FB7F894E8812E2B3F
:1011E00028838FBFDF91CF9108958F929F92AF9206
:1011F000BF92CF92DF92EF92FF926B017C010E942F
:101200002F094B015C01C114D104E104F104F1F098
:101210000E942F09DC01CB0188199909AA09BB0991
:10122000883E9340A105B10570F321E0C21AD108B0
:10123000E108F10888EE880E83E0981EA11CB11C1D
:10124000C114D104E104F10419F7DDCFFF90EF9050
:10125000DF90CF90BF90AF909F908F9008953FB751
:10126000F89480913E0490913F04A0914004B09185
:10127000410426B5A89B05C02F3F19F00196A11D7A
:10128000B11D3FBFBA2FA92F982F8827820F911D1C
:10129000A11DB11DBC01CD0142E0660F771F881F63
:1012A000991F4A95D1F708951F920F920FB60F928A
:1012B00011242F933F938F939F93AF93BF9380916C
:1012C0003A0490913B04A0913C04B0913D043091CC
:1012D000390423E0230F2D3720F40196A11DB11D01
:1012E00005C026E8230F0296A11DB11D20933904E5
:1012F00080933A0490933B04A0933C04B0933D0444
:1013000080913E0490913F04A0914004B09141042B
:101310000196A11DB11D80933E0490933F04A093BC
:101320004004B0934104BF91AF919F918F913F9141
:101330002F910F900FBE0F901F901895CF93DF93B2
:1013400000D000D000D0CDB7DEB7789484B58260ED
:1013500084BD84B5816084BD85B5826085BD85B559
:10136000816085BD80916E00816080936E001092D7
:101370008100809181008260809381008091810052
:1013800081608093810080918000816080938000E3
:101390008091B10084608093B1008091B000816041
:1013A0008093B00080917A00846080937A0080916D
:1013B0007A00826080937A0080917A0081608093C5
:1013C0007A0080917A00806880937A001092C10040
:1013D000E0918203F091830382E08083E0917E03B9
:1013E000F0917F031082E0918003F09181038FECF4
:1013F000808310928A03E0918603F091870386E050
:101400008083E0918403F0918503808180618083F3
:10141000E0918403F0918503808188608083E0916E
:101420008403F0918503808180688083E091840348
:10143000F091850380818F7D80830E9487081092C0
:10144000320480913604823018F098E09093320490
:1014500090913704992339F0813029F48091320436
:1014600084608093320462E370E080E090E00E9448
:10147000F508609138048DE294E00E946C0368EEF8
:1014800073E080E090E00E94F50860E38DE294E074
:101490000E9480030BE416E4C8010197F1F760E3B2
:1014A0008DE294E00E948003C8010197F1F760E3A8
:1014B0008DE294E00E94800383E592E00197F1F7CA
:1014C00060E28DE294E00E948003609132046062E9
:1014D00040E08DE294E00E94990384E0809333041D
:1014E00040E06CE08DE294E00E9499030E94430684
:1014F00082E08093340440E066E08DE294E00E9454
:10150000990340E062E08DE294E00E9499038BE34E
:101510009FE10197F1F70E94870861E08DE00E944A
:10152000B90861E08BE00E94B90861E08CE00E949C
:10153000B90861E08AE00E94B90860E08BE00E948F
:10154000580860E08DE00E94580860E08CE00E943E
:10155000580860E08AE00E94580888E48093B80048
:1015600060E084E00E94B90810929D0210929A02F5
:101570001092B5021092B6021092B4021092BB0201
:101580001092BD021092BC026EE972E080E090E021
:101590000E940F0562EA72E088EC90E00E940F055D
:1015A00066EA72E08CE291E00E940F0561E089E05A
:1015B0000E9414068EE391E00E94B605EAE02E2E0A
:1015C000312CF7E0CF2ED12CA6E06A2E712CB5E09D
:1015D000AB2EB12C14E0812E912C1AEFE091BC02BD
:1015E000F091BD02EB30F10508F0DFC7EC5CFF4F76
:1015F0000C94041481E080934E0328E6209370033A
:1016000010924F031092710360E08FE094E00E940B
:10161000530281E00E94B80567E070E088E690E040
:101620000E944E068FE094E00E940A028F77982F66
:1016300092959F70582E919F500C11248FE094E04A
:101640000E940A029C01332794E0359527959A95CC
:10165000E1F7482E129F400C11248FE094E00E9485
:101660000A029C01332744E0359527954A95E1F716
:10167000082F129F000D11248FE094E00E940A02AF
:101680008FE094E00E940A029C01332754E03595D4
:1016900027955A95E1F7E82E129FE00C11248FE070
:1016A00094E00E940A029C01332764E03595279557
:1016B0006A95E1F7F82E129FF00C11248FE094E068
:1016C0000E940A029C01332774E0359527957A958C
:1016D000E1F7129F800D1124682F70E0AB01405399
:1016E000584F8983FA82EB820C834D825E82802F71
:1016F00090E09093AD028093AC02842D90E09093A3
:10170000AF028093AE02852D90E09093B10280935A
:10171000B0022E2D30E03093BA022093B9028F2D03
:1017200090E09093AB028093AA025093B80240934A
:10173000B702E4EBF0E081E08F1530F49491290FCB
:10174000311D8F5F3196F8CF82E08F1538F4CB01D1
:1017500083709927892B11F42F5F3F4F4D5C5740C1
:101760005695479556954795EDE6F1E06E9FC00179
:101770006F9F900D7E9F900D1124840F951F0596ED
:10178000820F931FB6010E94CE1383309105B1F0F2
:1017900030F48130910561F0029769F006C0853020
:1017A000910591F070F0069791F06AE471E011C034
:1017B00063E571E00EC069E571E00BC06FE571E0B3
:1017C00008C068E671E005C06EE671E002C067E738
:1017D00071E08BE194E00E94E1028F2D90E0FC012A
:1017E0003197EC30F10558F5E15CFF4F0C9404148F
:1017F0006EE771E020C062E871E01DC066E871E04C
:101800001AC06AE871E017C06EE871E014C062E9BE
:1018100071E011C066E971E00EC06AE971E00BC0C9
:101820006EE971E008C062EA71E005C066EA71E045
:1018300002C06AEA71E081E294E00E94E10261E0A4
:1018400070E080E290E00E944E068FE094E00E94FB
:101850000A02807F803F31F08091BB02882311F023
:1018600061E001C060E08BE00E9458086091BB021B
:101870008DE00E94580860E080E00E9414068FEA24
:1018800091E00E94B60562E080E00E94140640915B
:101890001F045091200460911B0470911C048DE280
:1018A00094E00E94BA008EEB91E00E94B605809110
:1018B000B9029091BA020E9401088EEB91E00E9459
:1018C000B605409125045091260460912104709141
:1018D00022048DE294E00E94BA008EEB91E00E9417
:1018E000B6058091B7029091B8020E9401080E944B
:1018F000350580919D02882309F4C3C010929D0292
:101900000E94680550909C02F3E25F126AC00E9438
:10191000970620919E0230919F024091A002509123
:10192000A102621773078407950731F41092B5027C
:1019300081E08093B60242C02091A2023091A302BE
:101940004091A4025091A50262177307840795077E
:1019500041F41092B5021092B60281E08093B40275
:101960002FC0623D24E072078105910591F320911B
:10197000A6023091A7024091A8025091A9026217D5
:1019800073078407950721F481E08093B50214C0A2
:101990000E94430660E080E00E94140680EC91E023
:1019A0000E94B60568EE73E080E090E00E94F508C2
:1019B0000E9443061092B5021092B6021092B40231
:1019C0001092B3021092B202CE0101960E94A306B9
:1019D000CE0101960E94BC06CE0101960E940F0323
:1019E00050C07AE2571229C01092B3021092B2028C
:1019F000CE0101960E94A306CE0101960E94BC066C
:101A0000CE0101960E940F031092B5021092B60209
:101A10001092B4020E94430660E080E00E94140627
:101A200080EC91E00E94B60568EE73E080E090E003
:101A30000E94F5080E94430624C0E090B202F09094
:101A4000B30261E08E2D0E941406CE0101960E9421
:101A5000F906652DCE0101960E940407BC0187E2BC
:101A600094E00E94F802CE0101960E940F038AE2E0
:101A70000E9438078FEFE81AF80AF092B302E0925A
:101A8000B20263E080E00E94140689EC91E00E94BB
:101A9000B60563E088E00E94140681ED91E00E94A3
:101AA000B6058091B602882369F01092B6020E94B2
:101AB000430664E670E080E090E00E94F50881E073
:101AC00090E022C08091B502882369F01092B5029F
:101AD0000E94430664E670E080E090E00E94F50812
:101AE000E2E0F0E014C38091B402882309F45DC5FC
:101AF0001092B4020E94430664E670E080E090E039
:101B00000E94F50883E090E09093BD028093BC02B0
:101B10004CC560E080E00E94140689ED91E00E94CF
:101B2000B60560E08DE00E94580861E08CE00E94FC
:101B3000580861E08AE00E94580868EE73E080E08F
:101B400090E00E94F50860E08CE00E94580860E098
:101B50008AE00E945808FEC460E080E00E941406FB
:101B60009091BB0281E089278093BB02882321F0FA
:101B700084EE91E00E94B6058091BB02811104C001
:101B800083EF91E00E94B60568EE73E080E090E09C
:101B90000E94F5080E94430695C460E080E00E9420
:101BA000140685E092E00E94B60562E080E00E94A3
:101BB000140660919E0270919F028091A002909104
:101BC000A1024AE00E94410763E080E00E941406FF
:101BD00089E192E00E94B60563E088E00E94140665
:101BE00081ED91E00E94B6050E94350580919D022D
:101BF000882309F4DAC410929D020E94680550906F
:101C00009C029AE2591217C00E9443061092B30236
:101C10001092B202CE0101960E94A306CE01019657
:101C20000E94BC06CE0101960E940F039092BD0255
:101C30008092BC02BAC4B3E25B1293C41092B302A6
:101C40001092B2020E94970660939E0270939F02C8
:101C50008093A0029093A1026EE972E080E090E090
:101C60000E94E4040E94430660E080E00E941406A3
:101C700080E292E00E94B60568EE73E080E090E0BA
:101C80000E94F508CE0101960E94A306CE0101969E
:101C90000E94BC06CE0101960E940F039092BD02E5
:101CA0008092BC025BC460E080E00E9414068BE27C
:101CB00092E00E94B60562E080E00E941406609106
:101CC000A2027091A3028091A4029091A5024AE021
:101CD0000E94410763E080E00E94140689E192E0DF
:101CE0000E94B60563E088E00E94140681ED91E051
:101CF0000E94B6050E94350580919D02882309F453
:101D000054C410929D020E94680550909C02FAE211
:101D10005F1217C00E9443061092B3021092B202E3
:101D2000CE0101960E94A306CE0101960E94BC0638
:101D3000CE0101960E940F03B092BD02A092BC0298
:101D400034C423E2521235C00E9443061092B302FB
:101D50001092B2020E9497066093A2027093A302AF
:101D60008093A4029093A50262EA72E088EC90E06E
:101D70000E94E40460E080E00E94140680E292E0A9
:101D80000E94B60568EE73E080E090E00E94F508DE
:101D9000CE0101960E94A306CE0101960E94BC06C8
:101DA000CE0101960E940F03B092BD02A092BC0228
:101DB000D5C3E090B202F090B30261E08E2D0E9494
:101DC0001406CE0101960E94F906652DCE010196FA
:101DD0000E940407BC0187E294E00E94F802CE0151
:101DE00001960E940F03852D0E9438077FEFE71AA6
:101DF000F70AD7C360E080E00E94140680E492E016
:101E00000E94B60562E080E00E9414066091A6027E
:101E10007091A7028091A8029091A9024AE00E94C5
:101E2000410763E080E00E94140689E192E00E948D
:101E3000B60563E088E00E94140681ED91E00E94FF
:101E4000B6050E94350580919D02882309F4ADC333
:101E500010929D020E94680550909C028AE25812DE
:101E600017C00E9443061092B3021092B202CE0134
:101E700001960E94A306CE0101960E94BC06CE01E7
:101E800001960E940F037092BD026092BC028DC346
:101E900093E2591235C00E9443061092B302109289
:101EA000B2020E9497066093A6027093A7028093E5
:101EB000A8029093A90266EA72E08CE291E00E9487
:101EC000E40460E080E00E94140680E292E00E9458
:101ED000B60568EE73E080E090E00E94F508CE0160
:101EE00001960E94A306CE0101960E94BC06CE0177
:101EF00001960E940F037092BD026092BC022EC335
:101F0000E090B202F090B30261E08E2D0E941406C0
:101F1000CE0101960E94F906652DCE0101960E9420
:101F20000407BC0187E294E00E94F802CE0101960A
:101F30000E940F03852D0E943807BFEFEB1AFB0AA2
:101F400030C360E080E00E94140685E592E00E94C4
:101F5000B60563E080E00E94140689E192E00E94E9
:101F6000B60563E088E00E94140681ED91E00E94CE
:101F7000B6050E94350580919D02882309F415C39A
:101F800010929D020E94680550909C02EAE25E1247
:101F900017C00E9443061092B3021092B202CE0103
:101FA00001960E94A306CE0101960E94BC06CE01B6
:101FB00001960E940F03D092BD02C092BC02F5C2EE
:101FC000F3E25F1247C00E9443061092B3021092E0
:101FD000B2020E9497066093AC027093AD0220910A
:101FE000B0023091AE024091B9025091AA028091A4
:101FF000B7029091B802803D77E0970710F0805DBE
:10200000974089835A834B836C833D832E83CE0113
:1020100001960E94820760E080E00E94140680E240
:1020200092E00E94B60568EE73E080E090E00E94C6
:10203000F508CE0101960E94A306CE0101960E94EA
:10204000BC06CE0101960E940F03D092BD02C09241
:10205000BC0284C2E090B202F090B30261E08E2D27
:102060000E941406CE0101960E94F906652DCE014C
:1020700001960E940407BC0187E294E00E94F802E6
:10208000CE0101960E940F03852D0E9438078FEF25
:10209000E81AF80A86C260E080E00E94140681E631
:1020A00092E00E94B60563E080E00E94140689E198
:1020B00092E00E94B60563E088E00E94140681ED7C
:1020C00091E00E94B6050E94350580919D0288230B
:1020D00009F46BC210929D020E94680550909C0208
:1020E0009AE2591219C00E9443061092B30210924C
:1020F000B202CE0101960E94A306CE0101960E9473
:10210000BC06CE0101960E940F03E8E0F0E0F093D8
:10211000BD02E093BC0249C2F3E25F12CEC00E944E
:1021200043061092B3021092B2020E949706609387
:10213000AE027093AF022091B0023091AC02409198
:10214000B9025091AA028091B7029091B802803DE5
:1021500077E0970710F0805D974089835A834B831F
:102160003C836D832E83CE0101960E94820760E03E
:1021700080E00E94140680E292E00E94B60568EEBC
:1021800073E080E090E00E94F508CE0101960E9485
:10219000A306CE0101960E94BC06CE0101960E94C4
:1021A0000F0388E090E084C060E080E00E941406A5
:1021B0008FE692E00E94B60563E080E00E9414067C
:1021C00089E192E00E94B60563E088E00E9414066F
:1021D00081ED91E00E94B6050E94350580919D0237
:1021E000882309F4E2C110929D020E946805509074
:1021F0009C02BAE25B1215C00E9443061092B30221
:102200001092B202CE0101960E94A306CE01019661
:102210000E94BC06CE0101960E940F03E9E0F0E0A7
:1022200076CFF3E25F1249C00E9443061092B302D8
:102230001092B2020E9497066093B9027093BA029C
:102240002091B0023091AE024091AC025091AA02AE
:102250008091B7029091B802803D77E0970710F027
:10226000805D974089835A836B834C833D832E83A3
:10227000CE0101960E94820760E080E00E94140671
:1022800080E292E00E94B60568EE73E080E090E0A4
:102290000E94F508CE0101960E94A306CE01019688
:1022A0000E94BC06CE0101960E940F0389E090E0D7
:1022B0009093BD028093BC0251C1E090B202F090B5
:1022C000B30261E08E2D0E941406CE0101960E9499
:1022D000F906652DCE0101960E940407BC0187E234
:1022E00094E00E94F802CE0101960E940F03852D12
:1022F0000E9438079FEFE91AF90A53C160E080E0B5
:102300000E9414068AE792E00E94B60563E080E02E
:102310000E94140689E192E00E94B60563E088E01D
:102320000E94140681ED91E00E94B6050E943505D9
:1023300080919D02882309F438C110929D020E9469
:10234000680550909C02BAE25B1217C00E944306D7
:102350001092B3021092B202CE0101960E94A3061F
:10236000CE0101960E94BC06CE0101960E940F0389
:102370003092BD022092BC0218C1E3E25E1247C057
:102380000E9443061092B3021092B2020E94970676
:102390006093AA027093AB022091B0023091AE021A
:1023A0004091AC025091B9028091B7029091B8026D
:1023B000803DF7E09F0710F0805D974089836A8336
:1023C0005B834C833D832E83CE0101960E9482075E
:1023D00060E080E00E94140680E292E00E94B60570
:1023E00068EE73E080E090E00E94F508CE0101966F
:1023F0000E94A306CE0101960E94BC06CE01019662
:102400000E940F033092BD022092BC02A7C0E09050
:10241000B202F090B30261E08E2D0E941406CE014C
:1024200001960E94F906652DCE0101960E940407CF
:10243000BC0187E294E00E94F802CE0101960E945E
:102440000F03852D0E9438072FEFE21AF20AA9C068
:1024500060E080E00E94140687E892E00E94B605E2
:1024600063E080E00E94140683E992E00E94B605D2
:1024700063E088E00E94140681ED91E00E94B605B9
:102480000E94350580919D02882309F48EC0109228
:102490009D020E94680550909C027AE2571217C074
:1024A0000E9443061092B3021092B202CE0101962E
:1024B0000E94A306CE0101960E94BC06CE010196A1
:1024C0000E940F031092BD021092BC026EC083E204
:1024D000581247C00E9443061092B3021092B202F3
:1024E0000E9497067093B8026093B7022091B002E1
:1024F0003091AE02E091AC02F091B902A091AA0233
:10250000AB01603D774010F0405D57404983AA839E
:10251000FB83EC833D832E83CE0101960E948207CC
:1025200060E080E00E94140680E292E00E94B6051E
:1025300068EE73E080E090E00E94F508CE0101961D
:102540000E94A306CE0101960E94BC06CE01019610
:102550000E940F031092BD021092BC020E9443061B
:1025600024C0E090B202F090B30261E08E2D0E9490
:102570001406CE0101960E94F906652DCE01019642
:102580000E940407BC0187E294E00E94F802CE0199
:1025900001960E940F03852D0E943807EFEFEE1A77
:1025A000FE0AF092B302E092B2020E94BC0116C889
:1025B0008BE194E00E940F0381E294E00E940F03FC
:1025C00087E294E00C940F03E2E7F3E013821282B7
:1025D00088EE93E0A0E0B0E084839583A683B78380
:1025E00022E131E03183208325EC30E035872487F8
:1025F00024EC30E03787268720EC30E0318B208BCD
:1026000021EC30E0338B228B22EC30E0358B248BB5
:1026100026EC30E0378B268B118E128E138E148EA3
:10262000EFE0F4E01382128284839583A683B7835C
:1026300084E291E091838083EDE2F4E013821282E0
:1026400086E391E09183808387E2848384E18087BD
:1026500084E08187128688E0838787E294E00E9485
:10266000A90581E294E00E94A9058BE194E00C9415
:10267000A9051F93FC0199278827BC01E8941191B3
:102680001032E9F3193010F01E30C8F31B3251F04C
:102690001D3249F4689406C00E946013610F711DD9
:1026A000811D911D119110531A30B0F33EF4909595
:1026B0008095709561957F4F8F4F9F4F1F91089523
:1026C000592F482F372F262F660F771F881F991FE6
:1026D000660F771F881F991F620F731F841F951F36
:1026E000660F771F881F991F0895F999FECF92BD35
:1026F00081BDF89A992780B50895262FF999FECFC4
:102700001FBA92BD81BD20BD0FB6F894FA9AF99A0E
:102710000FBE019608952F923F924F925F926F9253
:102720007F928F929F92AF92BF92CF92DF92EF9261
:10273000FF920F931F93CF93DF93CDB7DEB7CA1BE2
:10274000DB0B0FB6F894DEBF0FBECDBF09942A880D
:10275000398848885F846E847D848C849B84AA84B5
:10276000B984C884DF80EE80FD800C811B81AA8142
:10277000B981CE0FD11D0FB6F894DEBF0FBECDBF0D
:10278000ED010895991B79E004C0991F961708F090
:10279000961B881F7A95C9F780950895AA1BBB1BC5
:1027A00051E107C0AA1FBB1FA617B70710F0A61B51
:1027B000B70B881F991F5A95A9F780959095BC0172
:1027C000CD010895A1E21A2EAA1BBB1BFD010DC06D
:1027D000AA1FBB1FEE1FFF1FA217B307E407F507D1
:1027E00020F0A21BB30BE40BF50B661F771F881FAD
:1027F000991F1A9469F760957095809590959B0143
:10280000AC01BD01CF010895EE0FFF1F0590F491BB
:10281000E02D09940F931F93CF93DF93823091059E
:1028200010F482E090E0E0914404F091450420E04F
:1028300030E0A0E0B0E0309719F140815181028191
:10284000138148175907C8F08417950769F4109742
:1028500031F012960C93129713961C9327C0009395
:1028600044041093450422C02115310519F0421784
:10287000530718F49A01BD01EF01DF01F801DBCF26
:1028800021153105F9F0281B390B2430310580F46E
:102890008A819B816115710521F0FB0193838283FD
:1028A00004C09093450480934404FE01329644C0D2
:1028B000FE01E20FF31F8193919322503109398376
:1028C00028833AC02091420430914304232B41F4E1
:1028D000209102013091030130934304209342047C
:1028E00020910001309101012115310541F42DB7EE
:1028F0003EB74091040150910501241B350BE09136
:102900004204F0914304E217F307A0F42E1B3F0B9F
:102910002817390778F0AC014E5F5F4F2417350751
:1029200048F04E0F5F1F509343044093420481933D
:10293000919302C0E0E0F0E0CF01DF91CF911F91D1
:102940000F910895CF93DF93009709F481C0FC01A4
:10295000329713821282A0914404B09145041097DB
:1029600081F420813181820F931F209142043091A4
:1029700043042817390751F5F0934304E0934204C8
:1029800067C0ED0120E030E0CE17DF0740F44A8158
:102990005B819E0141155105F1F0EA01F5CFD3832A
:1029A000C28340815181840F951FC817D90759F4FC
:1029B00088819981840F951F0296918380838A81F3
:1029C0009B81938382832115310529F4F09345047B
:1029D000E09344043DC0E901FB83EA8349915991A6
:1029E000C40FD51FEC17FD0761F480819181840F1E
:1029F000951F0296E90199838883828193819B8345
:102A00008A83E0E0F0E012968D919C9113970097F5
:102A100019F0FD01DC01F7CF8D919C9111979D017B
:102A20002E5F3F4F820F931F209142043091430449
:102A30002817390769F4309729F410924504109249
:102A4000440402C013821282B0934304A093420450
:102A5000DF91CF910895A0E0B0E0E1E3F5E10C94BF
:102A60008F13EC01009721F4CB010E940A14B4C02B
:102A7000FC01E60FF71F9C0122503109E217F30712
:102A800008F4A8C0D9010D911C91119706171707DA
:102A9000B0F00530110508F49BC0C80104978617F3
:102AA000970708F495C002501109061B170B0193F4
:102AB00011936D937C93CF010E94A21489C05B0196
:102AC000A01AB10A4C01800E911EA0914404B0914D
:102AD0004504612C712CE12CF12C109709F446C0AF
:102AE0008D919C911197A815B905B1F56C0142E043
:102AF000C40ED11CCA14DB0478F14C018A189B085F
:102B0000640142E0C40ED11C1296BC901297139639
:102B1000AC91B5E0CB16D10440F0B282A383918290
:102B20008082D9016D937C9309C00E5F1F4F800F87
:102B3000911FF90191838083EB2DFA2FE114F104A9
:102B400031F0D7011396FC93EE93129741C0F093A6
:102B50004504E09344043CC06816790608F43C013F
:102B60007D0112960D90BC91A02DB7CF80914204AB
:102B70009091430488169906E1F466167706C8F426
:102B80008091000190910101009741F48DB79EB7AB
:102B90004091040150910501841B950BE817F9073A
:102BA000C8F4F0934304E0934204F9017183608315
:102BB0000FC0CB010E940A147C01009759F0A801B4
:102BC000BE010E94F615CE010E94A214C70104C0E6
:102BD000CE0102C080E090E0CDB7DEB7EEE00C940D
:102BE000AB1381E090E0F8940C940616FB01DC0135
:102BF00002C001900D9241505040D8F70895FB015A
:102C0000DC0101900D920020E1F7089510E0CEE87C
:102C1000D0E004C0FE010E9404142196CF38D107F1
:062C2000C9F7F894FFCF94
:102C2600000046048000000040001400540000002C
:102C360000004D01BA00E4009A011501F3000701F6
:102C460000000000530226028202FA011E020A0256
:102C5600FB0100000000B003BA008202B90045493A
:102C6600312E315F454E49536F0044696D616E6385
:102C76006865004C756E6469004D61726469004D4B
:102C860065726372656469004A65756469005665B4
:102C96006E64726564690073616D656469004A619A
:102CA6006E00466576004D617200417672004D6198
:102CB60069004A7569004A756C00416F7500536575
:102CC60070004F6374004E6F760044C3A9630065BD
:102CD6006E7465722070617373776F7264002F0073
:102CE6006572726F72212121002A3A206578697413
:102CF60000233A207361766500646F6F72206F70EF
:102D06006E656400616C61726D2020616374697622
:102D1600C3A900616C61726D202064C3A9616374EC
:102D26006976C3A900616A7573745F757365725FAE
:102D360070617373776F7264002A3A6E65787400F7
:102D46006461746120736176656400616A75737489
:102D56005F61646D696E5F70617373776F72640033
:102D6600616A7573745F616C61726D5F70617373B4
:102D7600776F726400616A7573745F484F5552537A
:102D860000616A7573745F6D696E75746573006151
:102D96006A7573745F6461797300616A7573745FD1
:102DA6006D6F6E74687300616A7573745F796561BF
:0A2DB6007273002A3A6261636B0039
:00000001FF
