:100000000C9483000C94AB000C94AB000C94AB00EC
:100010000C94AB000C94AB000C94AB000C94AB00B4
:100020000C94AB000C94AB000C94AB000C94AB00A4
:100030000C94AB000C94AB000C94AB000C94AB0094
:100040000C9437080C94AB000C9457040C943104B6
:100050000C94AB000C94AB000C94AB000C94AB0074
:100060000C9489040C94AB00290315030103F402DA
:10007000E102CE02BE02AF02A2029302AA039C03D7
:10008000900387037A03700366035A0355035003F2
:10009000450AAA0AE20AE50B400CA10CFB0C1F1C46
:1000A0001F1E1F1E1F1F1E1F1E00000000240027F2
:1000B000002A0000000000250028002B000000009E
:1000C000002300260029000404040404040404029C
:1000D00002020202020303030303030102040810E5
:1000E00020408001020408102001020408102000B2
:1000F00000000800020100000304070000000000E7
:1001000000000000540D11241FBECFEFD8E0DEBF69
:10011000CDBF23E0ACE6B1E001C01D92A035B2072F
:10012000E1F711E0A0E0B1E0E8E5F0E202C00590FF
:100130000D92AC36B107D9F710E0C3E8D0E004C0A7
:100140002197FE010E940B10C238D107C9F70E9407
:1001500081080C942A100C940000CF92DF92EF9249
:10016000FF920F931F93CF93DF936C017A018B0162
:10017000C0E0D0E0CE15DF0581F0D8016D918D0192
:10018000D601ED91FC910190F081E02DC601099519
:10019000892B11F02196EECF7E01C701DF91CF911F
:1001A0001F910F91FF90EF90DF90CF900895FC0189
:1001B000538D448D252F30E0842F90E0821B930BCC
:1001C000541710F0CF96089501970895FC01918D72
:1001D000828D981761F0828DDF01A80FB11D5D96A9
:1001E0008C91928D9F5F9F73928F90E008958FEF17
:1001F0009FEF0895FC01918D828D981731F0828DCB
:10020000E80FF11D858D90E008958FEF9FEF089521
:10021000FC01918D228D892F90E0805C9F4F821B85
:1002200091098F739927089586E492E00E9408014E
:1002300021E0892B09F420E0822F0895FC01848DB0
:10024000DF01A80FB11DA35ABF4F2C91848D90E000
:1002500001968F739927848FA689B7892C93A089DB
:10026000B1898C91837080648C93938D848D981365
:1002700006C00288F389E02D80818F7D80830895F8
:10028000EF92FF920F931F93CF93DF93EC0181E0E6
:10029000888F9B8D8C8D981305C0E889F9898081A2
:1002A00085FD26C0F62E0B8D10E00F5F1F4F0F73DC
:1002B0001127E02E8C8DE8120CC00FB607FCFACF88
:1002C000E889F989808185FFF5CFCE010E941E0162
:1002D000F1CF8B8DFE01E80FF11DE35AFF4FF08245
:1002E0009FB7F8940B8FEA89FB89808180620AC0EE
:1002F0009FB7F894EE89FF896083E889F989808146
:100300008370806480839FBF81E090E0DF91CF9114
:100310001F910F91FF90EF900895CF93DF93EC0121
:10032000888D8823C9F0EA89FB89808185FD05C015
:10033000A889B9898C9186FD0FC00FB607FCF5CF4F
:10034000808185FFF2CFA889B9898C9185FFEDCF97
:10035000CE010E941E01E7CFDF91CF91089580E08A
:1003600090E0892B29F00E94140181110C94000067
:10037000089585ED8093BC008091BC0084FDFCCF86
:1003800010922102089540918C01262F30E0240F15
:10039000311D21323105DCF4209121022430C9F4D1
:1003A000FC0180E090E0861758F430918C01219197
:1003B000DC01A459BE4FA30FB11D2C930196F3CFBE
:1003C00080918C01680F60938C0180E0089581E03A
:1003D000089582E008950895E091B0018091AF0101
:1003E000E81730F4F0E0EF54FE4F808190E008957C
:1003F0008FEF9FEF08959091B0018091AF01981712
:1004000050F4E92FF0E0EF54FE4F208130E09F5F81
:100410009093B00102C02FEF3FEFC9010895809182
:10042000AF0190E02091B001821B91090895CF9215
:10043000DF92EF92FF920F931F93CF93DF937C0194
:10044000CB018A0120912202222389F0EB016B016A
:10045000C40ED51ECC15DD0569F06991D701ED916B
:10046000FC910190F081E02DC7010995F3CF642F35
:100470000E94C301C801DF91CF911F910F91FF909E
:10048000EF90DF90CF900895CF93DF931F92CDB779
:10049000DEB76983209122022223D1F02091450208
:1004A000203240F021E030E0FC013383228380E001
:1004B00090E015C080912302E82FF0E0EC5DFD4F45
:1004C000998190838F5F809323028093450205C0BA
:1004D00061E0CE0101960E94C30181E090E00F909F
:1004E000DF91CF910895089580E090E008952AE08B
:1004F00030E0B9010E94F70F9093DC018093DB019B
:10050000CB01B9010E94F70F9093DE018093DD01CA
:10051000089590E08A30910508F0B1C0FC01EC5CD0
:10052000FF4F0C940B108CE38093F30182E48093D3
:10053000F4018093F5018093F6018EE38093F70137
:1005400092E029C08CE38093F30192E49093F4014C
:100550009093F5018093F6018093F7011CC080E72A
:100560008093F30188E88093F40188E08093F5019B
:100570008093F6019CE19093F70131C08CE3809366
:10058000F30190E49093F4019093F5019093F601B8
:100590008093F70192E49093F8016DC09CE39093EF
:1005A000F30180E48093F4018093F5018093F601D8
:1005B0009093F70182E08093F8018093F9018CE732
:1005C0005CC080E48093F30182E48093F401809323
:1005D000F5018093F6018CE38093F70182E080932C
:1005E000F8018093F90149C09CE39093F30182E004
:1005F0008093F4018093F5019093F6019093F701B5
:100600000EC08CE78093F30182E08093F401809325
:10061000F5018CE38093F6018093F70180E48093E9
:10062000F8018093F9018EE328C088E18093F301FB
:1006300088E28093F40188E48093F50188E0809358
:10064000F6018093F7018093F8018093F9018CE122
:1006500014C08CE38093F30192E49093F40126E4B8
:100660002093F5012AE42093F60122E52093F70177
:1006700022E62093F8019093F9018093FA010895FE
:1006800090E08A30910508F071C0FC01E25CFF4FF8
:100690001092F3011092F4011092F5010C940B10DA
:1006A00088E38093F60198E21FC088E38093F60107
:1006B00098E231C088E38093F60188E08093F701E7
:1006C0009CE19093F8018093F90141C088E3809305
:1006D000F60190E29093F7018093F80198E229C027
:1006E00088E38093F60190E29093F7018093F801FC
:1006F00098E01FC080E18093F6018093F70184E1C8
:100700008093F8018CE18093F90184E020C088E3B4
:100710008093F60198E09093F7018093F80109C067
:1007200088E38093F60198E09093F7018093F801B5
:1007300090E29093F9010BC088E08093F60198E174
:100740009093F7018093F8018093F9018CE18093F5
:10075000FA0108959CE19093F60182E28093F701FB
:100760008093F8018093F9019093FA0108950E9413
:1007700025100F931F93CF93DF938C01C0E0D0E03F
:10078000F80141918F01BE0187E090E00E9495073A
:100790002196C830D105A1F7DF91CF911F910F911C
:1007A00008950F931F93CF93DF938C01C0E0D0E0A7
:1007B000F80141918F01BE0186E090E00E9495070B
:1007C0002196C830D105A1F7DF91CF911F910F91EC
:1007D00008950F931F93CF93DF938C01C0E0D0E077
:1007E000F80141918F01BE0185E090E00E949507DC
:1007F0002196C830D105A1F7DF91CF911F910F91BC
:1008000008950F931F93CF93DF938C01C0E0D0E046
:10081000F80141918F01BE0184E090E00E949507AC
:100820002196C830D105A1F7DF91CF911F910F918B
:1008300008950F931F93CF93DF938C01C0E0D0E016
:10084000F80141918F01BE0183E090E00E9495077D
:100850002196C830D105A1F7DF91CF911F910F915B
:1008600008951F920F920FB60F9211242F933F936A
:100870004F935F936F937F938F939F93AF93BF93A8
:10088000EF93FF9386E492E00E941E01FF91EF91A7
:10089000BF91AF919F918F917F916F915F914F9198
:1008A0003F912F910F900FBE0F901F9018951F92A0
:1008B0000F920FB60F9211242F938F939F93EF9364
:1008C000FF93E0915602F09157028081E0915C0223
:1008D000F0915D0282FD12C0908180915F028F5F76
:1008E0008F7320916002821751F0E0915F02F0E077
:1008F000EA5BFD4F958F80935F0201C08081FF917D
:10090000EF919F918F912F910F900FBE0F901F909D
:1009100018951F920F920FB60F9211242F933F93A9
:100920004F935F936F937F938F939F93AF93BF93F7
:10093000EF93FF938091B900887F803609F49CC0C3
:1009400068F5883209F45BC090F4803109F454C032
:1009500038F4882309F4F2C0883009F44DC0F2C09D
:10096000883109F44CC0803209F45DC0EBC080349A
:1009700009F468C048F4803309F455C0883309F09D
:10098000E1C080931F02D4C0803509F44FC0883580
:1009900009F45DC0883409F0D5C0D2C0883909F4A3
:1009A000C3C0A8F4883709F467C038F4883609F45E
:1009B00063C0803709F460C0C5C0883809F4B4C08A
:1009C000803909F45FC0803809F0BCC05BC0803B4F
:1009D00009F484C038F4803A09F466C0883A09F40E
:1009E0007DC0B0C0803C09F4A3C0883C09F4A0C01D
:1009F000883B09F486C0A6C08091FC0110C090918C
:100A00001E0280911D02981770F5E0911E0281E090
:100A10008E0F80931E02F0E0E350FE4F80818093A2
:100A2000BB0085EC82C080931F028AC0E0911E0249
:100A300081E08E0F80931E028091BB00F0E0E350B6
:100A4000FE4F808390911E0280911D026AC0E0914A
:100A50001E0281E08E0F80931E028091BB00F0E0A9
:100A6000E350FE4F808380912002811169C081E0B4
:100A70008093FB0184EA5DC083E0809321021092A1
:100A8000AE01CFCF8091AE01803208F04DC0E09131
:100A9000AE0181E08E0F8093AE018091BB00F0E04B
:100AA000E257FE4F8083BDCF85EC8093BC0010924F
:100AB00021028091AE01803230F4E091AE01F0E08D
:100AC000E257FE4F10826091AE0170E08EE891E037
:100AD000E0E0F0E009951092AE0134C084E080932C
:100AE000210210928D0110928C01E0E0F0E0099556
:100AF00080918C01811105C081E080938C0110925E
:100B00006C01E0918D0181E08E0F80938D01F0E00A
:100B1000E459FE4F80818093BB0090918D018091BC
:100B20008C01981708F47DCF85E88093BC000AC03B
:100B300085EC8093BC001092210204C010921F0229
:100B40000E94B901FF91EF91BF91AF919F918F9159
:100B50007F916F915F914F913F912F910F900FBEB9
:100B60000F901F901895833081F028F4813099F010
:100B70008230A1F008958730A9F08830B9F0843030
:100B8000D1F4809180008F7D03C0809180008F77A9
:100B900080938000089584B58F7702C084B58F7DDF
:100BA00084BD08958091B0008F7703C08091B0001C
:100BB0008F7D8093B000089530914502313208F066
:100BC0004BC0809121028111FCCF9091440222E020
:100BD0002093210221E0209320022FEF20931F0277
:100BE00010921E0230931D02E4E2F2E0ADEFB1E09C
:100BF00020E0321721F041914D932F5FFACF1092F0
:100C0000FC012091FC01990F922B9093FC01909193
:100C1000FB01913061F41092FB019091FC019093E3
:100C2000BB009091BC0093FDF8CF95EC01C095EE10
:100C30009093BC00909121029230E1F390911F02B9
:100C40009F3F79F080911F02803241F080911F0216
:100C5000803331F084E005C081E003C082E001C050
:100C600083E010922302109245021092220208950E
:100C70000F931F93CF938C0181E08093220288E62B
:100C800080934402109223021092450260E083EEAA
:100C900092E00E944402F8012581CAE0822F6C2F65
:100CA0000E94EB0F682F660F860F880F682F620F68
:100CB00083EE92E00E944402F8012481822F6C2F7F
:100CC0000E94EB0F682F660F860F880F682F620F48
:100CD00083EE92E00E944402F8012381822F6C2F60
:100CE0000E94EB0F682F660F860F880F682F620F28
:100CF00083EE92E00E94440260E083EE92E00E9464
:100D00004402F8012281822F6C2F0E94EB0F682F82
:100D1000660F860F880F682F620F83EE92E00E94A5
:100D20004402F8012181822F6C2F0E94EB0F682F63
:100D3000660F860F880F682F620F83EE92E00E9485
:100D40004402F8012081822F6C2F0E94EB0F682F44
:100D5000660F860F880F682F620F83EE92E00E9465
:100D60004402CF911F910F910C94DC05CF93DF9338
:100D7000282F30E0F901E151FF4F8491F901E5524C
:100D8000FF4FD491F901E953FF4FC491CC2391F067
:100D900081110E94B305EC2FF0E0EE0FFF1FE3542A
:100DA000FF4FA591B491EC91ED2381E090E021F407
:100DB00080E002C080E090E0DF91CF9108951F9322
:100DC000CF93DF93282F30E0F901E151FF4F849159
:100DD000F901E552FF4FD491F901E953FF4FC49156
:100DE000CC23C1F0162F81110E94B305EC2FF0E047
:100DF000EE0FFF1FED54FF4FA591B4919FB7F894EC
:100E0000111104C08C91D095D82302C0EC91DE2B37
:100E1000DC939FBFDF91CF911F910895AF92BF9256
:100E2000CF92DF92EF92FF920F931F93CF93DF93B6
:100E300000D0CDB7DEB769834A83880F991F009130
:100E4000450310914603000F111FEFEEF2E09F01E2
:100E50002F5E32402017310714F41192F8CF298108
:100E6000FC01E151FD4F21838A81808360E0809104
:100E700043030E94DF061016110634F501501109D4
:100E8000F801E151FD4FC080B0904103A0903F03B5
:100E900087E0E82EF12CD12CB6010E2C02C07595FE
:100EA00067950A94E2F761708A2D0E94DF0661E07F
:100EB0008B2D0E94DF0660E08B2D0E94DF0681E013
:100EC000E81AF10848F7D7CF61E0809143030F900B
:100ED0000F90DF91CF911F910F91FF90EF90DF90D6
:100EE000CF90BF90AF900C94DF06EF92FF920F93DC
:100EF0001F93CF937C018C0183E0000F111F8A9513
:100F0000E1F701501D4FC1E0F80111928F0140E05F
:100F10006C2FC7010E940E07CF5FC930A9F7CF9190
:100F20001F910F91FF90EF90089597FD18C02091A9
:100F3000450330914603821793078CF4683071059E
:100F400070F4FC0123E0EE0FFF1F2A95E1F7E15159
:100F5000FD4FE60FF71F408B6F5F0C940E0708954F
:100F60000F931F93CF93DF9303EF11E0C0E0D0E026
:100F7000F80141918F01BE0180E090E00E94950749
:100F80002196C830D105A1F7DF91CF911F910F9124
:100F900008950F931F93CF93DF9303EF11E0C0E009
:100FA000D0E0F80141918F01BE0181E090E00E9404
:100FB00095072196C830D105A1F7DF91CF911F91F8
:100FC0000F9108950F931F93CF93DF9300E411E0E7
:100FD000C0E0D0E0F80141918F01BE0182E090E0D5
:100FE0000E9495072196C830D105A1F7DF91CF91D6
:100FF0001F910F910895CF93DF9390E0FC01E5528C
:10100000FF4F2491FC01E953FF4F8491882361F144
:1010100090E0880F991FFC01E755FF4FC591D491CF
:10102000FC01ED54FF4FA591B491611109C09FB728
:10103000F8948881209582238883EC912E230BC01D
:10104000623061F49FB7F8948881322F3095832302
:101050008883EC912E2B2C939FBF06C08FB7F894FA
:10106000E8812E2B28838FBFDF91CF9108951F92A7
:101070000F920FB60F9211242F933F938F939F934C
:10108000AF93BF9380914C0390914D03A0914E0379
:10109000B0914F0330914B0323E0230F2D3720F401
:1010A0000196A11DB11D05C026E8230F0296A11DC2
:1010B000B11D20934B0380934C0390934D03A09359
:1010C0004E03B0934F038091470390914803A09142
:1010D0004903B0914A030196A11DB11D80934703B6
:1010E00090934803A0934903B0934A03BF91AF91F3
:1010F0009F918F913F912F910F900FBE0F901F9056
:101100001895CF93DF93CDB7DEB728970FB6F89435
:10111000DEBF0FBECDBF789484B5826084BD84B538
:10112000816084BD85B5826085BD85B5816085BDE2
:1011300080916E00816080936E001092810080919A
:101140008100826080938100809181008160809322
:101150008100809180008160809380008091B10047
:1011600084608093B1008091B00081608093B00072
:1011700080917A00846080937A0080917A00826006
:1011800080937A0080917A00816080937A008091C8
:101190007A00806880937A001092C100E091560234
:1011A000F091570282E08083E0915202F091530265
:1011B0001082E0915402F09155028FEC80831092DE
:1011C0005E02E0915A02F0915B0286E08083E0913A
:1011D0005802F0915902808180618083E091580229
:1011E000F0915902808188608083E0915802F091EB
:1011F0005902808180688083E0915802F091590201
:1012000080818F7D808362E08DE00E94FB0762E039
:1012100084E00E94FB0762E086E00E94FB0762E038
:1012200085E00E94FB0761E089E00E94FB0700E087
:1012300010E08091450390914603081719072CF49C
:1012400041E06CE0C8010E940E0780914503909137
:101250004603081719072CF448E06AE0C8010E9409
:101260000E078091450390914603081719071CF457
:10127000C8010E9475070F5F1F4F08301105C9F69E
:101280001092F2011092F1018EE190E09093EC0146
:101290008093EB0181E090E09093F0018093EF0167
:1012A00099249394E6E03E2EF5EE8F2EA0E1AA2E2F
:1012B000AEE0BA2E9092220228E6209344021092C9
:1012C00023021092450260E083EE92E00E94440205
:1012D0000E94DC05809121028111FCCF90922102B5
:1012E000909220023FEF30931F0210921E02309224
:1012F0001D029092FC018091FC01806D8093FC01A5
:101300008091FB01813071F41092FB018091FC010E
:101310008093BB008091BC0083FDF8CF85EC809367
:10132000BC0002C08092BC00809121028130E1F3B8
:1013300080911E02873018F490911E0201C097E040
:10134000ADEFB1E0E1EBF1E080E0891721F02D9104
:1013500021938F5FFACF1092B0018093AF0183EE9B
:1013600092E00E94FB018F77982F92959F701AEF61
:10137000782E919F700C112483EE92E00E94FB0165
:101380009C01332794E0359527959A95E1F7482EEF
:10139000129F400C112483EE92E00E94FB019C01FD
:1013A000332744E0359527954A95E1F7282E129F7B
:1013B000200C112483EE92E00E94FB0183EE92E068
:1013C0000E94FB019C01332754E0359527955A95DF
:1013D000E1F7582E129F500C112483EE92E00E94E8
:1013E000FB019C01332764E0359527956A95E1F769
:1013F000682E129F600C112483EE92E00E94FB0184
:101400009C01332774E0359527957A95E1F7129F73
:10141000800D1124082F10E00053184FE22CF12CFE
:10142000F092EE01E092ED01C42CD12CD092EA01B1
:10143000C092E901872D90E09093E8018093E70145
:10144000252D30E03093DA012093D901262D30E0AC
:101450003093D8012093D7011093D6010093D50182
:10146000EEE9F0E021E0261520F434912F5F31966B
:10147000FACFE091F101F091F201E730F10508F0C7
:1014800010C3E85BFF4F0C940B100E947702809111
:10149000DB010E9440030E94B0078091DD010E94A1
:1014A00040030E94C9070E94E207C6010E9477021A
:1014B0008091DB010E94890283EF91E00E94190470
:1014C0008091DD010E94890283EF91E00E94010476
:1014D00080E491E00E94E903C7010E9477028091B5
:1014E000DB010E94890283EF91E00E94D103809189
:1014F000DD010E94890283EF91E00E94B9038DE033
:101500000E94B606892B81F461E089E00E94DF0623
:101510008DE00E94B606892BD9F360E089E00E9435
:10152000DF0641E050E008C284E00E94B606892B45
:1015300009F0B7C261E089E00E94DF0684E00E9402
:10154000B606892BD9F360E089E00E94DF0683E0CC
:1015500090E04CC22091EF013091F001E20EF31EB9
:10156000F092F001E092EF012091EB013091EC015B
:10157000C20ED31ED092EA01C092E901EA9CA001FA
:10158000EB9C500DFA9C500D11246CE36C9D900166
:101590006D9D300D1124240F351F820F931F092ECE
:1015A000000CAA0BBB0B8093E3019093E401A09382
:1015B000E501B093E60122E030E03093F2012093A0
:1015C000F1016FC2EA9C9001EB9C300DFA9C300D4A
:1015D00011244CE3449E200D311D1124820F931FD2
:1015E000092E000CAA0BBB0B4090E3015090E401C4
:1015F0006090E5017090E601481A590A6A0A7B0A70
:101600004092DF015092E0016092E1017092E201AC
:10161000C301B2010E941F0E20E030E041E655E414
:101620000E943E0F20E030E040E05FE30E94D10ED8
:101630006B017C0120E030E0A9010E94E60F20E070
:1016400030E040E05FE387FD05C0C701B6010E94BE
:10165000D20E04C0C701B6010E94D10E0E94B00F85
:101660008B017093D4016093D3010A9DC0010B9D3F
:10167000900D1A9D900D112498878F83092E000CD0
:10168000AA0BBB0BA3019201281B390B4A0B5B0B66
:10169000CA01B9010E941F0E20E030E040E752E489
:1016A0000E943E0F20E030E040E05FE30E94D10E58
:1016B0006B017C0120E030E0A9010E94E60F20E0F0
:1016C00030E040E05FE387FD05C0C701B6010E943E
:1016D000D20E04C0C701B6010E94D10E0E94B00F05
:1016E0007B017093D2016093D1013CE34316510416
:1016F0006104710450F489E00E94B60661E0892B10
:1017000009F060E089E00E94DF062CE32E9DC00115
:101710002F9D900D1124CF80D884C80ED91EC201F0
:101720008C199D090E9477028091DB010E94400381
:101730000E94B0078091DD010E9440030E94C9070A
:101740000E94E207C7010E9477028091DB010E949C
:10175000890283EF91E00E9419048091DD010E94CB
:10176000890283EF91E00E94010480E491E00E94ED
:10177000E903C8010E9477028091DB010E9489027F
:1017800083EF91E00E94D1038091DD010E948902E4
:1017900083EF91E00E94B90345284628472829F4A1
:1017A00060E089E00E94DF0678C18DE00E94B60605
:1017B000892B09F076C161E089E00E94DF068DE0A7
:1017C0000E94B606892BD9F3EBCF88E391E00E9403
:1017D000B90380E391E00E94D10388E291E00E9486
:1017E000E90380E291E00E94010480E491E00E941C
:1017F0001904C6010E9477028091DD010E948902CE
:101800000E94C9078091DB010E9489020E94B007F3
:10181000C6010E94770286E00E94B606892B49F431
:1018200086E00E94B606892BD9F34FEFC41AD40A7A
:101830000DC085E00E94B606892BA1F485E00E94C8
:10184000B606892BD9F351E0C51AD108D092EA0126
:10185000C092E901005D174009836A825B822C8295
:10186000CD8257C084E00E94B606892B09F019C1C9
:1018700084E00E94B606892BD9F384E090E0B6C0DC
:1018800088E191E00E94B90380E191E00E94D103D8
:1018900080E391E00E94E90388E091E00E94010466
:1018A00080E491E00E941904C7010E9477028091B0
:1018B000DD010E9489020E94C9078091DB010E941C
:1018C00089020E94B00786E00E94B606892B49F47F
:1018D00086E00E94B606892BD9F39FEFE91AF90A30
:1018E0000DC085E00E94B606892BC9F485E00E94F0
:1018F000B606892BD9F321E0E21AF108F092EE0145
:10190000E092ED01005D174009836A825B82EC8200
:101910004D821E82CE0101960E943806C2C084E02C
:101920000E94B606892B09F0BCC084E00E94B6066E
:10193000892BD9F345E050E05093F2014093F10137
:10194000B0C00091EB011091EC01C8010E94770238
:1019500088E091E00E94B90380E091E00E94D10309
:1019600088E391E00E94E90380E391E00E94010492
:1019700080E491E00E941904C8010E9477028091DE
:10198000DD010E9489020E94C9078091DB010E944B
:1019900089020E94B00786E00E94B606892B41F4B6
:1019A00086E00E94B606892BD9F30F5F1F4F0CC04B
:1019B00085E00E94B606892B61F485E00E94B60698
:1019C000892BD9F3015011091093EC010093EB011D
:1019D00068C084E00E94B606892B09F062C084E0EA
:1019E0000E94B606892BD9F386E090E09093F2012D
:1019F0008093F10156C00091EF011091F001C801F0
:101A00000E94770288E091E00E94B90380E091E0B3
:101A10000E94D10388E191E00E94E90380E191E016
:101A20000E94010480E491E00E941904C8010E9410
:101A300077028091DD010E9489020E94C90780918E
:101A4000DB010E9489020E94B00786E00E94B60670
:101A5000892B41F486E00E94B606892BD9F30F5FEB
:101A60001F4F0CC085E00E94B606892B61F485E00B
:101A70000E94B606892BD9F3015011091093F00189
:101A80000093EF010EC084E00E94B606892B49F452
:101A900084E00E94B606892BD9F31092F2011092CD
:101AA000F1010E94AF0106CCCF93DF93109249025F
:101AB0001092480288EE93E0A0E0B0E080934A02E2
:101AC00090934B02A0934C02B0934D022CE431E072
:101AD000309347022093460225EC30E030935302C6
:101AE0002093520224EC30E03093550220935402AC
:101AF00020EC30E0309357022093560221EC30E086
:101B0000309359022093580222EC30E030935B026C
:101B100020935A0226EC30E030935D0220935C0261
:101B200010925F02109260021092610210926202A3
:101B30001092E6021092E5028093E7029093E80289
:101B4000A093E902B093EA028EE591E09093E4025B
:101B50008093E302CCE0D0E0D0934003C0933F03F6
:101B60008BE090E090934203809341038AE090E001
:101B7000909344038093430388E090E0909346035E
:101B80008093450361E08CE00E94FB0761E0809157
:101B900041030E94FB0761E0809143030E94FB0721
:101BA00061E0809143030E94DF06D0934003C0931D
:101BB0003F03EFEFF2E08FE393E011928E179F0760
:101BC000E1F7C0E0D0E08091450390914603C8174B
:101BD000D90794F540E06FE0CE010E940E07D7FDD3
:101BE0000CC08091450390914603C817D9072CF487
:101BF00047E06BE0CE010E940E0740E069E0CE01B5
:101C00000E940E07D7FD16C08091450390914603B0
:101C1000C817D9071CF4CE010E94750780914503AF
:101C200090914603C817D9072CF440E06CE0CE0130
:101C30000E940E072196C7CFDF91CF910895E894B7
:101C400009C097FB3EF490958095709561957F4F04
:101C50008F4F9F4F9923A9F0F92F96E9BB279395B2
:101C6000F695879577956795B795F111F8CFFAF4C2
:101C7000BB0F11F460FF1BC06F5F7F4F8F4F9F4FF3
:101C800016C0882311F096E911C0772321F09EE851
:101C9000872F762F05C0662371F096E8862F70E0B7
:101CA00060E02AF09A95660F771F881FDAF7880F91
:101CB0009695879597F90895990F0008550FAA0BE7
:101CC000E0E8FEEF16161706E807F907C0F012164F
:101CD0001306E407F50798F0621B730B840B950B52
:101CE00039F40A2661F0232B242B252B21F40895A7
:101CF0000A2609F4A140A6958FEF811D811D089544
:101D000097F99F6780E870E060E008959FEF80ECAE
:101D1000089500240A941616170618060906089551
:101D200000240A9412161306140605060895092EB7
:101D30000394000C11F4882352F0BB0F40F4BF2B26
:101D400011F460FF04C06F5F7F4F8F4F9F4F089566
:101D500057FD9058440F551F59F05F3F71F047955C
:101D6000880F97FB991F61F09F3F79F08795089541
:101D7000121613061406551FF2CF4695F1DF08C060
:101D8000161617061806991FF1CF8695710561057D
:101D900008940895E894BB2766277727CB0197F925
:101DA00008955058BB27AA270E94E90E0C94970E5D
:101DB0000E94890E38F00E94900E20F039F49F3F67
:101DC00019F426F40C94860E0EF4E095E7FB0C94BF
:101DD000800EE92F0E94A80E58F3BA176207730706
:101DE0008407950720F079F4A6F50C94CA0E0EF43A
:101DF000E0950B2EBA2FA02D0B01B90190010C011B
:101E0000CA01A0011124FF27591B99F0593F50F432
:101E1000503E68F11A16F040A22F232F342F44278A
:101E2000585FF3CF469537952795A795F040539582
:101E3000C9F77EF41F16BA0B620B730B840BBAF052
:101E40009150A1F0FF0FBB1F661F771F881FC2F7BD
:101E50000EC0BA0F621F731F841F48F487957795D1
:101E60006795B795F7959E3F08F0B0CF9395880F8B
:101E700008F09927EE0F9795879508950E94520FC5
:101E80000C94970E0E94900E58F00E94890E40F01C
:101E900029F45F3F29F00C94800E51110C94CB0E65
:101EA0000C94860E0E94A80E68F39923B1F3552373
:101EB00091F3951B550BBB27AA276217730784075D
:101EC00038F09F5F5F4F220F331F441FAA1FA9F3F3
:101ED00035D00E2E3AF0E0E832D091505040E695E1
:101EE000001CCAF72BD0FE2F29D0660F771F881F42
:101EF000BB1F261737074807AB07B0E809F0BB0B35
:101F0000802DBF01FF2793585F4F3AF09E3F510548
:101F100078F00C94800E0C94CB0E5F3FE4F3983E67
:101F2000D4F3869577956795B795F7959F5FC9F731
:101F3000880F911D9695879597F90895E1E0660FB2
:101F4000771F881FBB1F621773078407BA0720F02B
:101F5000621B730B840BBA0BEE1F88F7E095089594
:101F60000E94B70F6894B1110C94CB0E08950E9493
:101F7000B00E88F09F5798F0B92F9927B751B0F05D
:101F8000E1F0660F771F881F991F1AF0BA95C9F7FD
:101F900014C0B13091F00E94CA0EB1E008950C94C3
:101FA000CA0E672F782F8827B85F39F0B93FCCF376
:101FB000869577956795B395D9F73EF4909580957A
:101FC000709561957F4F8F4F9F4F08950E945C0ED3
:101FD00008F48FEF0895991B79E004C0991F9617B4
:101FE00008F0961B881F7A95C9F78095089597FB8E
:101FF000072E16F4009407D077FD09D00E94111027
:1020000007FC05D03EF4909581959F4F08957095FB
:1020100061957F4F0895EE0FFF1F0590F491E02D1D
:102020000994AA1BBB1B51E107C0AA1FBB1FA6171F
:10203000B70710F0A61BB70B881F991F5A95A9F771
:1020400080959095BC01CD01089581E090E0F894D1
:082050000C942A10F894FFCF54
:102058003C408080FC80808078848488F0888482FA
:102068003C4281818181423C81818181FF818181E2
:102078007C10101010101010016161918986868003
:10208800818181818181817E42A19589818181813E
:102098000018180000181800000000004001AD00EA
:1020A800D7008D010801E600FA0000000000440294
:0C20B80017027402EB010F02FB01EC01A7
:00000001FF
