:100000000C948B000C94B3000C94B3000C94B300CC
:100010000C94B3000C94B3000C94B3000C94B30094
:100020000C94B3000C94B3000C94B3000C94B30084
:100030000C94B3000C94B3000C94B3000C94B30074
:100040000C946D090C94B3000C9468060C94420651
:100050000C94B3000C94B3000C94B3000C94B30054
:100060000C949A060C94B300910CFF0CDB0D470E18
:10007000950EEB0E2F0F6F0FAD0F24109B1012116A
:100080008911710D780D7F0D860D8F0D960D9D0DCB
:10009000A40DAB0DB20DB50DBC0D050911091D095F
:1000A000F308E008CD08BF08B0089D088E081F1CA3
:1000B0001F1E1F1E1F1F1E1F1E00000000240027E2
:1000C000002A0000000000250028002B000000008E
:1000D0000800020100000304070000000000000007
:1000E000000000000023002600290004040404048A
:1000F00004040402020202020203030303030301D5
:1001000002040810204080010204081020010204AB
:1001100008102000021211241FBECFEFD8E0DEBF6E
:10012000CDBF23E0ACEFB1E001C01D92A53FB20707
:10013000E1F711E0A0E0B1E0EAEAF9E202C00590DF
:100140000D92AC3FB107D9F710E0CBE8D0E004C086
:100150002197FE010E94C814CA38D107C9F70E942E
:10016000B7090C94D3140C940000CF92DF92EF9255
:10017000FF92CF93DF93B091A103882311F0AB2FAF
:1001800001C0A0E08091A20390E0880F991F8F51D9
:100190009F4FC090A703D090A803E090A903F090D0
:1001A000AA0320E030E0FC01C591D491E881EB2363
:1001B000A90160E070E0EA130CC02F5F3F4F4C15BF
:1001C0005D056E057F0578F33FEF2FEF8FEF9FEF13
:1001D00003C0322F252FCB01632F722FDF91CF91D8
:1001E000FF90EF90DF90CF900895833081F028F456
:1001F000813099F08230A1F008958730A9F08830DD
:10020000B9F08430D1F4809180008F7D03C080915B
:1002100080008F7780938000089584B58F7702C027
:1002200084B58F7D84BD08958091B0008F7703C021
:100230008091B0008F7D8093B00008951F93CF937D
:10024000DF93282F30E0F901E353FF4F8491F90148
:10025000E150FF4FD491F901E551FF4FC491CC23F8
:10026000C1F0162F81110E94F500EC2FF0E0EE0F87
:10027000FF1FED53FF4FA591B4919FB7F894111153
:1002800004C08C91D095D82302C0EC91DE2BDC9376
:100290009FBFDF91CF911F9108958F929F92AF9250
:1002A000BF92CF92DF92EF92FF926B017C010E948E
:1002B00048094B015C01C114D104E104F104F1F0DF
:1002C0000E944809DC01CB0188199909AA09BB09D8
:1002D000883E9340A105B10570F321E0C21AD10810
:1002E000E108F10888EE880E83E0981EA11CB11C7D
:1002F000C114D104E104F10419F7DDCFFF90EF90B0
:10030000DF90CF90BF90AF909F908F900895AF9265
:10031000BF92CF92DF92EF92FF920F931F93CF93F2
:10032000DF9300D0CDB7DEB769834A83880F991F6A
:100330000091980310919903000F111FE2E4F3E07C
:100340009F01225433402017310714F41192F8CF43
:100350002981FC01EE5BFC4F21838A81808360E070
:10036000809196030E941E011016110634F501506B
:100370001109F801EE5BFC4FC080B0909403A0908F
:10038000920387E0E82EF12CD12CB6010E2C02C08E
:10039000759567950A94E2F761708A2D0E941E0197
:1003A00061E08B2D0E941E0160E08B2D0E941E01DA
:1003B00081E0E81AF10848F7D7CF61E08091960311
:1003C0000F900F90DF91CF911F910F91FF90EF90C1
:1003D000DF90CF90BF90AF900C941E01EF92FF92F0
:1003E0000F931F93CF937C018C0183E0000F111FAB
:1003F0008A95E1F70E5A1C4FC1E0F80111928F0166
:1004000040E06C2FC7010E948701CF5FC930A9F778
:10041000CF911F910F91FF90EF900895309194022A
:10042000313208F04BC0809170028111FCCF909165
:10043000930222E02093700221E020936F022FEFBD
:1004400020936E0210926D0230936C02E3E7F2E0AB
:10045000ACE4B2E020E0321721F041914D932F5FE0
:10046000FACF10924B0220914B02990F922B90934E
:100470004B0290914A02913061F410924A0290919D
:100480004B029093BB009091BC0093FDF8CF95EC8C
:1004900001C095EE9093BC00909170029230E1F310
:1004A00090916E029F3F79F080916E02803241F010
:1004B00080916E02803331F084E005C081E003C09A
:1004C00082E001C083E010927202109294021092B6
:1004D0007102089597FD18C02091980330919903F7
:1004E000821793078CF46830710570F4FC0123E0E7
:1004F000EE0FFF1F2A95E1F7EE5BFC4FE60FF71FAB
:10050000408B6F5F0C94870108950F931F93CF93D7
:100510008C0181E08093710288E6809393021092AF
:1005200072021092940260E086E393E00E940D064E
:10053000F8012581CAE0822F6C2F0E948614682F53
:10054000660F860F880F682F620F86E393E00E9484
:100550000D06F8012481822F6C2F0E948614682FCB
:10056000660F860F880F682F620F86E393E00E9464
:100570000D06F8012381822F6C2F0E948614682FAC
:10058000660F860F880F682F620F86E393E00E9444
:100590000D0660E086E393E00E940D06F8012281DB
:1005A000822F6C2F0E948614682F660F860F880F8B
:1005B000682F620F86E393E00E940D06F801218107
:1005C000822F6C2F0E948614682F660F860F880F6B
:1005D000682F620F86E393E00E940D06F8012081E8
:1005E000822F6C2F0E948614682F660F860F880F4B
:1005F000682F620F86E393E00E940D06CF911F9152
:100600000F910C940E02CF93DF93282F30E0F90165
:10061000E353FF4F8491F901E150FF4FD491F90169
:10062000E551FF4FC491CC2391F081110E94F50058
:10063000EC2FF0E0EE0FFF1FEF51FF4FA591B491AB
:10064000EC91ED2381E090E021F480E002C080E0B5
:1006500090E0DF91CF910895CF93DF9390E0FC017C
:10066000E150FF4F2491FC01E551FF4F8491882315
:1006700061F190E0880F991FFC01E754FF4FC5918D
:10068000D491FC01ED53FF4FA591B491611109C0C4
:100690009FB7F8948881209582238883EC912E233C
:1006A0000BC0623061F49FB7F8948881322F309587
:1006B00083238883EC912E2B2C939FBF06C08FB78A
:1006C000F894E8812E2B28838FBFDF91CF91089576
:1006D000CF92DF92EF92FF920F931F93CF93DF930E
:1006E000CDB7DEB7C054D1400FB6F894DEBF0FBE11
:1006F000CDBF2FB7F8948091950290919602A0916A
:100700009702B09198022FBF4091A3035091A40388
:100710006091A5037091A6038C019D01041B150B2C
:10072000260B370BB901A801403D57406105710503
:1007300018F48091AB03CAC08093A3039093A403E1
:10074000A093A503B093A60310929E0310929D035D
:1007500010929C0310929B0310929A0362E0809186
:100760009F030E942C0361E070E080E090E00E9413
:100770004D0161E080919F030E942C0360E0809115
:100780009F030E941E018091A0038551823028F4AE
:100790008BE291E10197F1F706C064E170E080E03F
:1007A00090E00E944D0162E080919F030E942C0323
:1007B0008091AC0390E08230910538F0880F991F4A
:1007C000880F991F05970197F1F7F89480E00E9430
:1007D000B5006F3F7F4F8F4F9F4F21F41092AB03B7
:1007E000789441C081E00E94B5006F3F7F4F8F4FEA
:1007F0009F4FA1F38E010F5F1F4F6E018FEBC81A41
:100800008EEFD80A780180E00E94B500F70160837E
:1008100071838283938381E00E94B500F701648332
:10082000758386839783F8E0EF0EF11CEC14FD04CA
:1008300051F7789420E030E0F801C080D180E28068
:10084000F3804481558166817781FFEFCF16DF0603
:10085000EF06FF0631F04F3F8FEF58076807780724
:1008600021F41092AB0380E031C0F90183E0F595EB
:10087000E7958A95E1F7E656FC4F8081880FC4160C
:10088000D506E606F70608F4816080832F5F3F4FA8
:10089000085F1F4F2832310579F620919E0330E022
:1008A00040919A0380919B0390E0840F911D4091A9
:1008B0009C03840F911D40919D03840F911D9927E6
:1008C0002817390771F681E08093AB03C05CDE4FD7
:1008D0000FB6F894DEBF0FBECDBFDF91CF911F9151
:1008E0000F91FF90EF90DF90CF900895CF92DF921D
:1008F000EF92FF920F931F93CF93DF936C017A01D6
:100900008B01C0E0D0E0CE15DF0581F0D8016D91FC
:100910008D01D601ED91FC910190F081E02DC60191
:100920000995892B11F02196EECF7E01C701DF9149
:10093000CF911F910F91FF90EF90DF90CF9008958E
:10094000FC01538D448D252F30E0842F90E0821BD5
:10095000930B541710F0CF96089501970895FC015A
:10096000918D828D981761F0828DDF01A80FB11DE6
:100970005D968C91928D9F5F9F73928F90E008950A
:100980008FEF9FEF0895FC01918D828D981731F0C4
:10099000828DE80FF11D858D90E008958FEF9FEF18
:1009A0000895FC01918D228D892F90E0805C9F4FEE
:1009B000821B91098F739927089589E992E00E941B
:1009C000D10421E0892B09F420E0822F0895FC0155
:1009D000848DDF01A80FB11DA35ABF4F2C91848DC8
:1009E00090E001968F739927848FA689B7892C93FD
:1009F000A089B1898C91837080648C93938D848D50
:100A0000981306C00288F389E02D80818F7D808352
:100A10000895EF92FF920F931F93CF93DF93EC0112
:100A200081E0888F9B8D8C8D981305C0E889F989AA
:100A3000808185FD26C0F62E0B8D10E00F5F1F4FC5
:100A40000F731127E02E8C8DE8120CC00FB607FC37
:100A5000FACFE889F989808185FFF5CFCE010E9420
:100A6000E704F1CF8B8DFE01E80FF11DE35AFF4F34
:100A7000F0829FB7F8940B8FEA89FB8980818062AE
:100A80000AC09FB7F894EE89FF896083E889F989E5
:100A900080818370806480839FBF81E090E0DF91DC
:100AA000CF911F910F91FF90EF900895CF93DF9317
:100AB000EC01888D8823C9F0EA89FB89808185FD56
:100AC00005C0A889B9898C9186FD0FC00FB607FCB7
:100AD000F5CF808185FFF2CFA889B9898C9185FFF8
:100AE000EDCFCE010E94E704E7CFDF91CF910895CB
:100AF00080E090E0892B29F00E94DD0481110C94A4
:100B00000000089585ED8093BC008091BC0084FDB9
:100B1000FCCF1092700208954091CD03262F30E053
:100B2000240F311D21323105DCF420917002243074
:100B3000C9F4FC0180E090E0861758F43091CD03B1
:100B40002191DC01A355BC4FA30FB11D2C9301963D
:100B5000F3CF8091CD03680F6093CD0380E00895BB
:100B600081E0089582E008950895E091FD0180916B
:100B7000FC01E81730F4F0E0E250FE4F808190E095
:100B800008958FEF9FEF08959091FD018091FC01F2
:100B9000981750F4E92FF0E0E250FE4F208130E04A
:100BA0009F5F9093FD0102C02FEF3FEFC9010895B1
:100BB0008091FC0190E02091FD01821B9109089534
:100BC000CF92DF92EF92FF920F931F93CF93DF9319
:100BD0007C01CB018A0120917102222389F0EB0173
:100BE0006B01C40ED51ECC15DD0569F06991D701E6
:100BF000ED91FC910190F081E02DC7010995F3CFB3
:100C0000642F0E948C05C801DF91CF911F910F9135
:100C1000FF90EF90DF90CF900895CF93DF931F92D6
:100C2000CDB7DEB76983209171022223D1F02091E4
:100C30009402203240F021E030E0FC013383228333
:100C400080E090E015C080917202E82FF0E0ED584E
:100C5000FD4F998190838F5F8093720280939402FD
:100C600005C061E0CE0101960E948C0581E090E014
:100C70000F90DF91CF910895089580E090E008955E
:100C80000E94CE141F920F920FB60F9211242F9331
:100C90003F934F935F936F937F938F939F93AF9304
:100CA000BF93EF93FF9389E992E00E94E704FF91DD
:100CB000EF91BF91AF919F918F917F916F915F91D4
:100CC0004F913F912F910F900FBE0F901F9018954D
:100CD0001F920F920FB60F9211242F938F939F9311
:100CE000EF93FF93E091A902F091AA028081E09135
:100CF000AF02F091B00282FD12C090818091B202E9
:100D00008F5F8F732091B302821751F0E091B2028E
:100D1000F0E0E756FD4F958F8093B20201C08081CD
:100D2000FF91EF919F918F912F910F900FBE0F9098
:100D30001F9018951F920F920FB60F9211242F93A8
:100D40003F934F935F936F937F938F939F93AF9353
:100D5000BF93EF93FF938091B900887F803609F4A9
:100D60009CC068F5883209F45BC090F4803109F4C6
:100D700054C038F4882309F4F2C0883009F44DC017
:100D8000F2C0883109F44CC0803209F45DC0EBC078
:100D9000803409F468C048F4803309F455C08833BE
:100DA00009F0E1C080936E02D4C0803509F44FC0D1
:100DB000883509F45DC0883409F0D5C0D2C08839BF
:100DC00009F4C3C0A8F4883709F467C038F488363A
:100DD00009F463C0803709F460C0C5C0883809F4DD
:100DE000B4C0803909F45FC0803809F0BCC05BC072
:100DF000803B09F484C038F4803A09F466C0883A2C
:100E000009F47DC0B0C0803C09F4A3C0883C09F45B
:100E1000A0C0883B09F486C0A6C080914B0210C0D8
:100E200090916D0280916C02981770F5E0916D02BF
:100E300081E08E0F80936D02F0E0E45BFD4F8081D6
:100E40008093BB0085EC82C080936E028AC0E091E3
:100E50006D0281E08E0F80936D028091BB00F0E007
:100E6000E45BFD4F808390916D0280916C026AC0BB
:100E7000E0916D0281E08E0F80936D028091BB0046
:100E8000F0E0E45BFD4F808380916F02811169C0C7
:100E900081E080934A0284EA5DC083E0809370021F
:100EA0001092EF03CFCF8091EF03803208F04DC056
:100EB000E091EF0381E08E0F8093EF038091BB0000
:100EC000F0E0E153FC4F8083BDCF85EC8093BC0004
:100ED000109270028091EF03803230F4E091EF03C2
:100EE000F0E0E153FC4F10826091EF0370E08FEC73
:100EF00093E0E0E0F0E009951092EF0334C084E065
:100F0000809370021092CE031092CD03E0E0F0E0E7
:100F100009958091CD03811105C081E08093CD03B7
:100F20001092AD03E091CE0381E08E0F8093CE034B
:100F3000F0E0E355FC4F80818093BB009091CE039D
:100F40008091CD03981708F47DCF85E88093BC008D
:100F50000AC085EC8093BC001092700204C010920D
:100F60006E020E948205FF91EF91BF91AF919F9118
:100F70008F917F916F915F914F913F912F910F9042
:100F80000FBE0F901F9018950F931F93CF93DF9371
:100F90008C01C0E0D0E0F80141918F01BE0187E0F3
:100FA00090E00E946A022196C830D105A1F7DF9136
:100FB000CF911F910F9108950F931F93CF93DF93BC
:100FC0008C01C0E0D0E0F80141918F01BE0186E0C4
:100FD00090E00E946A022196C830D105A1F7DF9106
:100FE000CF911F910F9108950F931F93CF93DF938C
:100FF0008C01C0E0D0E0F80141918F01BE0185E095
:1010000090E00E946A022196C830D105A1F7DF91D5
:10101000CF911F910F9108950F931F93CF93DF935B
:101020008C01C0E0D0E0F80141918F01BE0184E065
:1010300090E00E946A022196C830D105A1F7DF91A5
:10104000CF911F910F9108950F931F93CF93DF932B
:101050008C01C0E0D0E0F80141918F01BE0183E036
:1010600090E00E946A022196C830D105A1F7DF9175
:10107000CF911F910F9108950F931F93CF93DF93FB
:101080008C01C0E0D0E0F80141918F01BE0182E007
:1010900090E00E946A022196C830D105A1F7DF9145
:1010A000CF911F910F9108950F931F93CF93DF93CB
:1010B0008C01C0E0D0E0F80141918F01BE0181E0D8
:1010C00090E00E946A022196C830D105A1F7DF9115
:1010D000CF911F910F9108950F931F93CF93DF939B
:1010E0008C01C0E0D0E0F80141918F01BE0180E0A9
:1010F00090E00E946A022196C830D105A1F7DF91E5
:10110000CF911F910F91089590E08A30910508F0DA
:101110009EC0FC01E35BFF4F0C94C8148CE38093EA
:10112000200282E480932102809322028093230292
:101130008EE38093240292E00CC08CE38093200223
:1011400092E4909321029093220280932302809351
:1011500024029093250290932602809327020895FB
:1011600080E78093200288E88093210288E08093C2
:101170002202809323029CE1909324022FC08CE3EF
:101180008093200290E49093210290932202909306
:1011900023028093240292E4DCCF9CE3909320020C
:1011A00080E4809321028093220280932302909313
:1011B000240282E080932502809326028CE7CDCF23
:1011C00080E48093200282E48093210280932202B3
:1011D000809323028CE38093240282E08093250293
:1011E00080932602BACF9CE39093200282E0809302
:1011F00021028093220290932302909324028093F1
:101200002502809326028EE3A8CFE0E6F1E0A0E27B
:10121000B2E088E691E021912D938E179F07D9F7D0
:101220000895E8E5F1E0A0E2B2E080E691E02191E6
:101230002D938E179F07D9F70895E8E6F1E0A0E215
:10124000B2E081918D9381E0E037F807D1F70895FE
:10125000CF92DF92EF92FF922AE0C22ED12CE12CA6
:10126000F12CA70196010E94A61470931F026093AF
:101270001E02CA01B901A70196010E94A61470932B
:10128000290260932802FF90EF90DF90CF9008959D
:101290003FB7F8948091F1039091F203A091F3038A
:1012A000B091F40326B5A89B05C02F3F19F0019615
:1012B000A11DB11D3FBFBA2FA92F982F8827820FDC
:1012C000911DA11DB11DBC01CD0142E0660F771F2C
:1012D000881F991F4A95D1F708951F920F920FB654
:1012E0000F9211242F933F938F939F93AF93BF93AC
:1012F0008091950290919602A0919702B0919802E8
:101300003091F00323E0230F2D3720F40196A11D27
:10131000B11D05C026E8230F0296A11DB11D209323
:10132000F0038093950290939602A0939702B09356
:1013300098028091F1039091F203A091F303B09190
:10134000F4030196A11DB11D8093F1039093F20364
:10135000A093F303B093F403BF91AF919F918F914A
:101360003F912F910F900FBE0F901F901895CF9324
:10137000DF93CDB7DEB762970FB6F894DEBF0FBE2E
:10138000CDBF789484B5826084BD84B5816084BD0E
:1013900085B5826085BD85B5816085BD80916E0013
:1013A000816080936E001092810080918100826044
:1013B0008093810080918100816080938100809181
:1013C00080008160809380008091B1008460809370
:1013D000B1008091B00081608093B00080917A006C
:1013E000846080937A0080917A00826080937A0092
:1013F00080917A00816080937A0080917A00806881
:1014000080937A001092C100E091A902F091AA02A3
:1014100082E08083E091A502F091A6021082E09123
:10142000A702F091A8028FEC80831092B102E091A4
:10143000AD02F091AE0286E08083E091AB02F091C4
:10144000AC02808180618083E091AB02F091AC02BC
:10145000808188608083E091AB02F091AC02808152
:1014600080688083E091AB02F091AC0280818F7D37
:10147000808362E080919F030E942C032FB7F89431
:101480008091950290919602A0919702B091980256
:101490002FBF805D9740A109B1098093A30390936A
:1014A000A403A093A503B093A60387E38093AC03A2
:1014B00062E085E00E942C0362E086E00E942C033B
:1014C00062E084E00E942C0362E083E00E942C032F
:1014D00061E080E10E942C0310922B0210922A02FC
:1014E00000912A0210912B02083011055CF517FDBE
:1014F00022C08091980390919903081719072CF442
:1015000041E06CE0C8010E948701809198039091AE
:101510009903081719072CF448E06AE0C8010E94F3
:1015200087018091980390919903081719071CF47B
:10153000C8010E94EE010F5F1F4F10932B02009312
:101540002A02CECF109249021092480261E06093C5
:10155000710288E6809393021092720210929402B4
:1015600060E086E393E00E940D060E940E028091E7
:1015700070028111FCCF71E07093700270936F0262
:101580008FEF80936E0210926D0286E080936C0262
:1015900070934B0280914B02806D80934B0280913F
:1015A0004A02813061F410924A0280914B0280938A
:1015B000BB008091BC0083FDF8CF85EC01C085EEB7
:1015C0008093BC00809170028130E1F380916D02C4
:1015D000873018F490916D0201C097E0ACE4B2E05E
:1015E000EEEFF1E080E0891721F02D9121938F5FDC
:1015F000FACF1092FD018093FC0186E393E00E94F4
:10160000C4058F77982F92959F705AEFC52ED82ECC
:101610009C9DD00C112486E393E00E94C4059C019C
:10162000332764E0359527956A95E1F7F82EC29E39
:10163000F00C112486E393E00E94C4059C0133273B
:1016400074E0359527957A95E1F7E82EC29EE00C77
:10165000112486E393E00E94C40586E393E00E9490
:10166000C4059C013327E4E035952795EA95E1F719
:10167000082FC29E000D112486E393E00E94C4054A
:101680009C013327F4E035952795FA95E1F7182F5B
:10169000C29E100D112486E393E00E94C4059C01B4
:1016A0003327A4E035952795AA95E1F7C29E800DD2
:1016B0001124282E312C410180E3881A88EF980AE2
:1016C0006E2D70E07A8769877093410260934002C3
:1016D0008F2D90E09C878B879093430280934202EA
:1016E0008D2D90E09093450280934402602F70E02E
:1016F00078876F8370933F0260933E02812F90E062
:101700009E878D8790933D0280933C0290923B028E
:1017100080923A029B01EEEAF0E081E0811730F41A
:101720009491290F311D8F5F3196F8CF133038F027
:10173000C10183709927892B11F42F5F3F4FC4019A
:101740008D5C974096958795969587956DE671E0A7
:10175000269EA001279E500D369E500D1124840F09
:10176000951F0596820F931F67E070E00E94921408
:101770005C0190932D0280932C020E9468038823C1
:10178000C1F18091A0038B30A0F18D30A8F085517C
:10179000823078F560919A0370919B0376276727D2
:1017A000762780E090E00E94E8122DEC3CEC4CECB7
:1017B0005DE30E94251321C060919B0370E080E0EF
:1017C00090E00E94EA122DEC3CEC4CEC5DE30E94B0
:1017D00025132B013C0160919A0370E080E090E0BA
:1017E0000E94EA129B01AC01C301B2010E94E41302
:1017F00004C060E070E080EC9FE70E9450146F87A7
:10180000788B898B9A8B70933102609330020E949F
:101810006803882309F46DC08091A0038C3009F41B
:1018200046C018F48B30D1F064C08551823008F086
:1018300060C0C0909C036C2D6F7770E0762F662798
:1018400080919D03682B80E090E00E94E8122DECCF
:101850003CEC4CEC5DE30E94251347C060919C0377
:1018600070E080E090E00E94E8122B013C01C09003
:101870009D03C7FE0AC09B01AC0160E070E080E8F8
:101880009FEB0E94E3132B013C016C2D6F7070E005
:1018900080E090E00E94EA122DEC3CEC4CEC5DE321
:1018A0000E942513A30192010E94E41326C0C09058
:1018B0009C0360919D036F7070E080E090E00E9457
:1018C000EA122DEC3CEC4CEC5DE30E9425132B015D
:1018D0003C016C2D70E080E090E00E94E8129B01DA
:1018E000AC01C301B2010E94E413C7FE06C09058C8
:1018F00004C060E070E080EC9FE70E9450142B0170
:101900003C0170932F0260932E02E0914802F09107
:101910004902ED30F10508F072C5EC5CFF4F0C9404
:10192000C8146D2D70E080E090E00E94280980913D
:101930001E020E94840880E292E00E946C0880915E
:1019400028020E94840880E292E00E94540880E30A
:1019500091E00E943C086F2D70E080E090E00E94D2
:10196000280980911E020E94840880E292E00E9471
:101970002408809128020E94840880E292E00E945C
:101980000C0880E391E00E94F4076E2D70E080E087
:1019900090E00E94280980911E020E94840880E243
:1019A00092E00E94DC07809128020E94840880E275
:1019B00092E00E94C40780914602909147020196EE
:1019C0009093470280934602C39738F010924702E3
:1019D0001092460281E090E00DC084E00E94030373
:1019E000892B09F00CC584E00E940303892BD9F3ED
:1019F00088E090E0909349028093480200C5E0900F
:101A00004602F09047027FEFE71AF70AF09247028A
:101A1000E092460283E0A816B10421F148F461E0A7
:101A2000A616B104A9F072E0A716B104C1F009C06E
:101A300085E0A816B104E1F0C0F066E0A616B10496
:101A4000F1F080E991E00E94C40788E491E01DC0B4
:101A500088E291E00E94C40780E891E016C080EB24
:101A600091E00FC080EB91E005C080E291E002C000
:101A700088E191E00E94C40788EC91E006C088E804
:101A800091E00E94C40780EC91E00E94DC0780E3B3
:101A900091E00E94F407602F70E080E090E00E94E7
:101AA0002809809128020E94840880E292E00E9426
:101AB0000C0880911E020E94840880E292E00E943D
:101AC000240880E391E00E94F407812F90E0FC015C
:101AD0003197EC30F10508F057C0EF5BFF4F0C94E5
:101AE000C81480E291E00E94540880EC91E04AC062
:101AF00080E191E00E94540888EC91E043C080EBC3
:101B000091E00E94540888EB91E03CC080EC91E0A9
:101B10000E940C0888E091E00E94540835C080EBD8
:101B200091E00E94540880ED91E02CC080E291E0A9
:101B30000E94540880E891E025C080E291E00E9474
:101B4000540888E291E01EC080EC91E00E945408A5
:101B500088EA91E017C088E891E00E94540888E084
:101B600091E010C088EA91E009C088E791E00E9406
:101B7000540888E191E006C080E991E00E94540891
:101B800080E091E00E946C0873E3E716F10438F0FE
:101B9000109247021092460282E090E02BCF84E040
:101BA0000E940303892B09F02AC484E00E940303E6
:101BB000892BD9F31DCFE0904602F09047028FEFBA
:101BC000E81AF80AF0924702E0924602B401990C32
:101BD000880B990B0E94280980911E020E9484089C
:101BE00080E292E00E946C08809128020E948408A2
:101BF00080E292E00E94540880E391E00E943C0859
:101C0000612F70E080E090E00E94280980911E0220
:101C10000E94840880E292E00E94240880912802B9
:101C20000E94840880E292E00E940C0880E391E028
:101C30000E94F407602F70E080E090E00E94280985
:101C400080911E020E94840880E292E00E94DC07DC
:101C5000809128020E94840880E292E00E94C407DA
:101C600093E3E916F10438F010924702109246020D
:101C700063E070E0E3C084E00E940303892B09F075
:101C8000BEC384E00E940303892BD9F3B1CE009137
:101C90004602109147020F5F1F4F109347020093B7
:101CA000460282E392E00E94C40782E392E00E942F
:101CB000DC0782E392E00E94F407B201550C880B26
:101CC000990B0E942809809128020E94840880E2D2
:101CD00092E00E940C0880911E020E94840880E21B
:101CE00092E00E94240888E391E00E943C0882E38D
:101CF00092E00E94540882E392E00E946C08033351
:101D0000110538F0109247021092460284E090E0EC
:101D100071CE84E00E940303892B09F070C384E034
:101D20000E940303892BD9F363CE009146021091E0
:101D300047020F5F1F4F10934702009346026F85C3
:101D400078896B01770FEE08FF08C701B6010E9482
:101D5000280982E392E00E94C40782E392E00E9495
:101D6000DC0782E392E00E94F407C701B6010E94FB
:101D70002809809128020E94840880E292E00E9453
:101D80000C0880911E020E94840880E292E00E946A
:101D9000240880E491E00E943C0882E392E00E94E3
:101DA000540882E392E00E946C080333110538F076
:101DB000109247021092460285E090E01BCE84E02C
:101DC0000E940303892B09F01AC384E00E940303D5
:101DD000892BD9F30DCE00914602109147020F5F77
:101DE0001F4F109347020093460280E591E00E9446
:101DF000C40788EC91E00E94DC0788E491E00E942F
:101E0000F40780E791E00E940C0888E591E00E94C9
:101E1000240880E791E00E943C0888E691E00E9457
:101E2000540880E591E00E946C080333110558F0D6
:101E3000109247021092460266E070E070934902E9
:101E400060934802DCC284E00E940303892B09F0FE
:101E5000D6C284E00E940303892BD9F3C9CD009137
:101E60004602109147020F5F1F4F109347020093E5
:101E7000460280E591E00E94C40788EC91E00E9450
:101E8000DC0788E791E00E94F40788E491E00E9473
:101E90000C0888E891E00E94240888EA91E00E94FA
:101EA0003C0882E392E00E94540880E591E00E94A1
:101EB0006C080333110538F0109247021092460265
:101EC00087E090E097CD84E00E940303892B09F01E
:101ED00096C284E00E940303892BD9F389CD009137
:101EE0004602109147020F5F1F4F10934702009365
:101EF000460280EC91E00E94C40780E891E00E94D5
:101F0000DC0780E791E00E94F40788E691E00E94F8
:101F10000C0880E691E00E94240880E791E00E948E
:101F20003C0888E691E00E94540888E591E00E9410
:101F30006C080333110528F01092470210924602F4
:101F40003AC284E00E940303892B09F058C284E05E
:101F50000E940303892BD9F34BCD80EB91E00E94C3
:101F6000C40780E891E00E94DC0788E791E00E94C6
:101F7000F40780EA91E00E940C0882E392E00E945C
:101F8000240882E392E00E943C086F2D70E080E01C
:101F900090E00E942809809128020E94840880E233
:101FA00092E00E94540880911E020E94840880E200
:101FB00092E00E946C0884E00E940303892BB1F434
:101FC00084E00E940303892BD9F390ED891A97E0EE
:101FD000990A89821A830B83EC82FD82DE82CE010C
:101FE00001960E94850269E070E028CF83E00E949C
:101FF0000303892B41F483E00E940303892BD9F367
:1020000089E090E0F7CC86E00E940303892B49F435
:1020100086E00E940303892BD9F38B859C8501966A
:102020000EC085E00E940303892B09F0E8C185E01A
:102030000E940303892BD9F38B859C85019790938C
:10204000430280934202DBC188E991E00E94C40709
:1020500088EA91E00E94DC0780E891E00E94F407A2
:1020600088EB91E00E940C0882E392E00E94240831
:1020700082E392E00E943C086E2D70E080E090E0E8
:102080000E942809809128020E94840880E292E040
:102090000E94540880911E020E94840880E292E00F
:1020A0000E946C0884E00E940303892BB1F484E051
:1020B0000E940303892BD9F390ED891A97E0990ABE
:1020C00089821A830B83EC82FD82DE82CE01019627
:1020D0000E9485026AE070E0B1CE83E00E940303B3
:1020E000892B41F483E00E940303892BD9F38AE012
:1020F00090E080CC86E00E940303892B49F486E0BF
:102100000E940303892BD9F389859A8501960EC015
:1021100085E00E940303892B09F071C185E00E94CC
:102120000303892BD9F389859A85019790934102FE
:102130008093400264C180E991E00E94C40780EC72
:1021400091E00E94DC0780ED91E00E94F40788E8AE
:1021500091E00E940C0882E392E00E94240882E34E
:1021600092E00E943C08602F70E080E090E00E94C6
:102170002809809128020E94840880E292E00E944F
:10218000540880911E020E94840880E292E00E941E
:102190006C0884E00E940303892BB1F484E00E9460
:1021A0000303892BD9F390ED891A97E0990A898264
:1021B0001A830B83EC82FD82DE82CE0101960E949F
:1021C00085026BE070E03ACE83E00E940303892B26
:1021D00041F483E00E940303892BD9F38BE090E064
:1021E00009CC86E00E940303892B49F486E00E9413
:1021F0000303892BD9F38F81988501960EC085E062
:102200000E940303892B09F0FAC085E00E940303B2
:10221000892BD9F38F819885019790933F02809302
:102220003E02EDC080EB91E00E94C40788EA91E095
:102230000E94DC0780EA91E00E94F40788E991E0BF
:102240000E940C0882E392E00E94240882E392E05C
:102250000E943C08612F70E080E090E00E94280915
:10226000809128020E94840880E292E00E94540833
:1022700080911E020E94840880E292E00E946C0815
:1022800084E00E940303892BB1F484E00E940303DD
:10229000892BD9F390ED891A97E0990A89821A83DC
:1022A0000B83EC82FD82DE82CE0101960E948502C4
:1022B0006CE070E0C3CD83E00E940303892B41F4FE
:1022C00083E00E940303892BD9F38CE090E092CB4A
:1022D00086E00E940303892B49F486E00E940303F1
:1022E000892BD9F38D859E8501960EC085E00E94CD
:1022F0000303892B09F083C085E00E940303892B27
:10230000D9F38D859E85019790933D0280933C0281
:1023100076C080ED91E00E94C40788EC91E00E94B5
:10232000DC0780EC91E00E94F40788EB91E00E94CA
:102330000C0882E392E00E94240882E392E00E946B
:102340003C08B401092C000C880B990B0E94280949
:10235000809128020E94840880E292E00E94540842
:1023600080911E020E94840880E292E00E946C0824
:1023700084E00E940303892BA1F484E00E940303FC
:10238000892BD9F390ED891A97E0990A89821A83EB
:102390000B83EC82FD82DE82CE0101960E948502D3
:1023A0000AC083E00E940303892B51F483E00E945A
:1023B0000303892BD9F310924902109248021FC0DF
:1023C00086E00E940303892B49F486E00E94030300
:1023D000892BD9F3C1018F52984F0DC085E00E941F
:1023E0000303892B61F485E00E940303892BD9F351
:1023F000C1018153984F90933B0280933A020E940F
:102400007805A4C8CF93DF9310929C0210929B0290
:1024100088EE93E0A0E0B0E080939D0290939E024E
:10242000A0939F02B093A0022CED31E030939A026A
:102430002093990225EC30E03093A6022093A50268
:1024400024EC30E03093A8022093A70220EC30E087
:102450003093AA022093A90221EC30E03093AC0221
:102460002093AB0222EC30E03093AE022093AD0219
:1024700026EC30E03093B0022093AF021092B2020B
:102480001092B3021092B4021092B5021092390366
:102490001092380380933A0390933B03A0933C033C
:1024A000B0933D038EEE91E0909337038093360313
:1024B00082E080939F038BE08093A003E1E0F1E052
:1024C000E491E093A103EDEEF0E0E491E093A20348
:1024D00080E89EE3A0E0B0E08093A7039093A80378
:1024E000A093A903B093AA03CCE0D0E0D0939303C8
:1024F000C09392038BE090E09093950380939403B4
:102500008AE090E0909397038093960388E090E0B0
:10251000909399038093980361E08CE00E942C03D0
:1025200061E0809194030E942C0361E08091960306
:102530000E942C0361E0809196030E941E01D093BB
:102540009303C0939203E2E5F3E0119283E0E23952
:10255000F807D9F7C0E0D0E08091980390919903F3
:10256000C817D90794F540E06FE0CE010E948701BB
:10257000D7FD0CC08091980390919903C817D90793
:102580002CF447E06BE0CE010E94870140E069E057
:10259000CE010E948701D7FD16C0809198039091CB
:1025A0009903C817D9071CF4CE010E94EE0180914F
:1025B000980390919903C817D9072CF440E06CE078
:1025C000CE010E9487012196C7CFDF91CF91089558
:1025D000E89409C097FB3EF49095809570956195BD
:1025E0007F4F8F4F9F4F9923A9F0F92F96E9BB2773
:1025F0009395F695879577956795B795F111F8CFEF
:10260000FAF4BB0F11F460FF1BC06F5F7F4F8F4F59
:102610009F4F16C0882311F096E911C0772321F04F
:102620009EE8872F762F05C0662371F096E8862FE7
:1026300070E060E02AF09A95660F771F881FDAF73E
:10264000880F9695879597F908950E9438130C94F2
:10265000A9130E949B1338F00E94A21320F0952327
:1026600011F00C9492130C94981311240C94DD1314
:102670000E94BA1370F3959FC1F3950F50E0551F58
:10268000629FF001729FBB27F00DB11D639FAA27C7
:10269000F00DB11DAA1F649F6627B00DA11D661F16
:1026A000829F2227B00DA11D621F739FB00DA11D37
:1026B000621F839FA00D611D221F749F3327A00DF1
:1026C000611D231F849F600D211D822F762F6A2F8D
:1026D00011249F5750409AF0F1F088234AF0EE0FF2
:1026E000FF1FBB1F661F771F881F91505040A9F71F
:1026F0009E3F510580F00C9492130C94DD135F3FC4
:10270000E4F3983ED4F3869577956795B795F7955A
:10271000E7959F5FC1F7FE2B880F911D96958795D2
:1027200097F9089597F99F6780E870E060E0089551
:102730009FEF80EC089500240A94161617061806D9
:102740000906089500240A941216130614060506B5
:102750000895092E0394000C11F4882352F0BB0F46
:1027600040F4BF2B11F460FF04C06F5F7F4F8F4FA9
:102770009F4F089557FD9058440F551F59F05F3FE4
:1027800071F04795880F97FB991F61F09F3F79F093
:1027900087950895121613061406551FF2CF469515
:1027A000F1DF08C0161617061806991FF1CF869597
:1027B0007105610508940895E894BB27662777277B
:1027C000CB0197F908955058BB27AA270E94FB1305
:1027D0000C94A9130E949B1338F00E94A21320F0BE
:1027E00039F49F3F19F426F40C9498130EF4E095F5
:1027F000E7FB0C949213E92F0E94BA1358F3BA170F
:10280000620773078407950720F079F4A6F50C9406
:10281000DC130EF4E0950B2EBA2FA02D0B01B9019D
:1028200090010C01CA01A0011124FF27591B99F046
:10283000593F50F4503E68F11A16F040A22F232F52
:10284000342F4427585FF3CF469537952795A795A2
:10285000F0405395C9F77EF41F16BA0B620B730B49
:10286000840BBAF09150A1F0FF0FBB1F661F771FBA
:10287000881FC2F70EC0BA0F621F731F841F48F46F
:10288000879577956795B795F7959E3F08F0B0CFF8
:102890009395880F08F09927EE0F979587950895DF
:1028A0000E9457146894B1110C94DD1308950E948E
:1028B000C21388F09F5798F0B92F9927B751B0F0FD
:1028C000E1F0660F771F881F991F1AF0BA95C9F7B4
:1028D00014C0B13091F00E94DC13B1E008950C9463
:1028E000DC13672F782F8827B85F39F0B93FCCF316
:1028F000869577956795B395D9F73EF49095809531
:10290000709561957F4F8F4F9F4F0895991B79E088
:1029100004C0991F961708F0961B881F7A95C9F76F
:1029200080950895AA1BBB1B51E107C0AA1FBB1FBE
:10293000A617B70710F0A61BB70B881F991F5A954B
:10294000A9F780959095BC01CD010895A1E21A2EBA
:10295000AA1BBB1BFD010DC0AA1FBB1FEE1FFF1F43
:10296000A217B307E407F50720F0A21BB30BE40B93
:10297000F50B661F771F881F991F1A9469F76095DA
:102980007095809590959B01AC01BD01CF01089594
:10299000EE0FFF1F0590F491E02D099481E090E087
:0A29A000F8940C94D314F894FFCFC0
:1029AA003E4080808080403E18644264584040E047
:1029BA003C408080FC808080818181818142241812
:1029CA000E04040404444438404040404040407EE1
:1029DA000018180000181800C0CE101010100E00B1
:1029EA0001626408102646807C1010101010107CBA
:1029FA003C42A581A599423C182848080808081CA9
:102A0A003C42464A5262423C7C02023C3C40403EC6
:102A1A0000000000001038100161619189868680EB
:102A2A00818181818181817E1E2120203E02423E58
:102A3A00F0888482828488F081818181FF8181810A
:102A4A007C101010101010103C4281818181423C90
:102A5A0042A195898181818178848488F0888482E1
:102A6A003C428181FF8181813C408080FC80403CE6
:102A7A00444444442810101000000000090576045C
:102A8A00A0045605D104AF04C304000000000D06DB
:0C2A9A00E0053D06B405D805C405B505EF
:00000001FF
